{
  "_format": "hh-sol-artifact-1",
  "contractName": "MyContract",
  "sourceName": "contracts/MyContract.sol",
  "abi": [
    {
      "inputs": [],
      "stateMutability": "nonpayable",
      "type": "constructor"
    },
    {
      "anonymous": false,
      "inputs": [
        {
          "indexed": false,
          "internalType": "address",
          "name": "admin",
          "type": "address"
        }
      ],
      "name": "AdminAdded",
      "type": "event"
    },
    {
      "anonymous": false,
      "inputs": [
        {
          "indexed": false,
          "internalType": "address",
          "name": "admin",
          "type": "address"
        }
      ],
      "name": "AdminRemoved",
      "type": "event"
    },
    {
      "anonymous": false,
      "inputs": [
        {
          "indexed": false,
          "internalType": "string",
          "name": "name",
          "type": "string"
        }
      ],
      "name": "CandidateAdded",
      "type": "event"
    },
    {
      "anonymous": false,
      "inputs": [
        {
          "indexed": false,
          "internalType": "address",
          "name": "voter",
          "type": "address"
        },
        {
          "indexed": false,
          "internalType": "uint256",
          "name": "candidateId",
          "type": "uint256"
        }
      ],
      "name": "Voted",
      "type": "event"
    },
    {
      "anonymous": false,
      "inputs": [
        {
          "indexed": false,
          "internalType": "address",
          "name": "voter",
          "type": "address"
        }
      ],
      "name": "VoterRegistered",
      "type": "event"
    },
    {
      "anonymous": false,
      "inputs": [
        {
          "indexed": false,
          "internalType": "address",
          "name": "voter",
          "type": "address"
        }
      ],
      "name": "VoterReset",
      "type": "event"
    },
    {
      "anonymous": false,
      "inputs": [
        {
          "indexed": false,
          "internalType": "uint256",
          "name": "newDuration",
          "type": "uint256"
        }
      ],
      "name": "VotingDurationChanged",
      "type": "event"
    },
    {
      "anonymous": false,
      "inputs": [],
      "name": "VotingEnded",
      "type": "event"
    },
    {
      "anonymous": false,
      "inputs": [
        {
          "indexed": false,
          "internalType": "uint256",
          "name": "endTime",
          "type": "uint256"
        }
      ],
      "name": "VotingStarted",
      "type": "event"
    },
    {
      "inputs": [
        {
          "internalType": "address",
          "name": "_admin",
          "type": "address"
        }
      ],
      "name": "addAdmin",
      "outputs": [],
      "stateMutability": "nonpayable",
      "type": "function"
    },
    {
      "inputs": [
        {
          "internalType": "string",
          "name": "name",
          "type": "string"
        }
      ],
      "name": "addCandidate",
      "outputs": [],
      "stateMutability": "nonpayable",
      "type": "function"
    },
    {
      "inputs": [
        {
          "internalType": "address",
          "name": "",
          "type": "address"
        }
      ],
      "name": "admins",
      "outputs": [
        {
          "internalType": "bool",
          "name": "",
          "type": "bool"
        }
      ],
      "stateMutability": "view",
      "type": "function"
    },
    {
      "inputs": [
        {
          "internalType": "uint256",
          "name": "",
          "type": "uint256"
        }
      ],
      "name": "candidates",
      "outputs": [
        {
          "internalType": "uint256",
          "name": "id",
          "type": "uint256"
        },
        {
          "internalType": "string",
          "name": "name",
          "type": "string"
        },
        {
          "internalType": "uint256",
          "name": "voteCount",
          "type": "uint256"
        }
      ],
      "stateMutability": "view",
      "type": "function"
    },
    {
      "inputs": [],
      "name": "candidatesCount",
      "outputs": [
        {
          "internalType": "uint256",
          "name": "",
          "type": "uint256"
        }
      ],
      "stateMutability": "view",
      "type": "function"
    },
    {
      "inputs": [],
      "name": "endVoting",
      "outputs": [],
      "stateMutability": "nonpayable",
      "type": "function"
    },
    {
      "inputs": [
        {
          "internalType": "uint256",
          "name": "candidateId",
          "type": "uint256"
        }
      ],
      "name": "getCandidate",
      "outputs": [
        {
          "internalType": "string",
          "name": "",
          "type": "string"
        },
        {
          "internalType": "uint256",
          "name": "",
          "type": "uint256"
        }
      ],
      "stateMutability": "view",
      "type": "function"
    },
    {
      "inputs": [],
      "name": "getCandidatesCount",
      "outputs": [
        {
          "internalType": "uint256",
          "name": "",
          "type": "uint256"
        }
      ],
      "stateMutability": "view",
      "type": "function"
    },
    {
      "inputs": [],
      "name": "getRemainingTime",
      "outputs": [
        {
          "internalType": "uint256",
          "name": "",
          "type": "uint256"
        }
      ],
      "stateMutability": "view",
      "type": "function"
    },
    {
      "inputs": [],
      "name": "getWinner",
      "outputs": [
        {
          "internalType": "string",
          "name": "winnerName",
          "type": "string"
        },
        {
          "internalType": "uint256",
          "name": "winnerVoteCount",
          "type": "uint256"
        }
      ],
      "stateMutability": "view",
      "type": "function"
    },
    {
      "inputs": [
        {
          "internalType": "address",
          "name": "_address",
          "type": "address"
        }
      ],
      "name": "isAdmin",
      "outputs": [
        {
          "internalType": "bool",
          "name": "",
          "type": "bool"
        }
      ],
      "stateMutability": "view",
      "type": "function"
    },
    {
      "inputs": [],
      "name": "owner",
      "outputs": [
        {
          "internalType": "address",
          "name": "",
          "type": "address"
        }
      ],
      "stateMutability": "view",
      "type": "function"
    },
    {
      "inputs": [
        {
          "internalType": "address",
          "name": "_voter",
          "type": "address"
        }
      ],
      "name": "registerVoter",
      "outputs": [],
      "stateMutability": "nonpayable",
      "type": "function"
    },
    {
      "inputs": [
        {
          "internalType": "address",
          "name": "_admin",
          "type": "address"
        }
      ],
      "name": "removeAdmin",
      "outputs": [],
      "stateMutability": "nonpayable",
      "type": "function"
    },
    {
      "inputs": [
        {
          "internalType": "address",
          "name": "voterAddress",
          "type": "address"
        }
      ],
      "name": "resetVoter",
      "outputs": [],
      "stateMutability": "nonpayable",
      "type": "function"
    },
    {
      "inputs": [],
      "name": "resetVotingState",
      "outputs": [],
      "stateMutability": "nonpayable",
      "type": "function"
    },
    {
      "inputs": [
        {
          "internalType": "uint256",
          "name": "durationInMinutes",
          "type": "uint256"
        }
      ],
      "name": "setVotingDuration",
      "outputs": [],
      "stateMutability": "nonpayable",
      "type": "function"
    },
    {
      "inputs": [],
      "name": "startVoting",
      "outputs": [],
      "stateMutability": "nonpayable",
      "type": "function"
    },
    {
      "inputs": [
        {
          "internalType": "uint256",
          "name": "candidateId",
          "type": "uint256"
        }
      ],
      "name": "vote",
      "outputs": [],
      "stateMutability": "nonpayable",
      "type": "function"
    },
    {
      "inputs": [
        {
          "internalType": "address",
          "name": "",
          "type": "address"
        }
      ],
      "name": "voters",
      "outputs": [
        {
          "internalType": "bool",
          "name": "isRegistered",
          "type": "bool"
        },
        {
          "internalType": "bool",
          "name": "hasVoted",
          "type": "bool"
        },
        {
          "internalType": "uint256",
          "name": "votedFor",
          "type": "uint256"
        }
      ],
      "stateMutability": "view",
      "type": "function"
    },
    {
      "inputs": [],
      "name": "votingDuration",
      "outputs": [
        {
          "internalType": "uint256",
          "name": "",
          "type": "uint256"
        }
      ],
      "stateMutability": "view",
      "type": "function"
    },
    {
      "inputs": [],
      "name": "votingEndTime",
      "outputs": [
        {
          "internalType": "uint256",
          "name": "",
          "type": "uint256"
        }
      ],
      "stateMutability": "view",
      "type": "function"
    },
    {
      "inputs": [],
      "name": "votingEnded",
      "outputs": [
        {
          "internalType": "bool",
          "name": "",
          "type": "bool"
        }
      ],
      "stateMutability": "view",
      "type": "function"
    },
    {
      "inputs": [],
      "name": "votingStarted",
      "outputs": [
        {
          "internalType": "bool",
          "name": "",
          "type": "bool"
        }
      ],
      "stateMutability": "view",
      "type": "function"
    }
  ],
  "bytecode": "0x6080604052610e1060025534801561001657600080fd5b50336000806101000a81548173ffffffffffffffffffffffffffffffffffffffff021916908373ffffffffffffffffffffffffffffffffffffffff16021790555060018060003373ffffffffffffffffffffffffffffffffffffffff1673ffffffffffffffffffffffffffffffffffffffff16815260200190815260200160002060006101000a81548160ff0219169083151502179055507f44d6d25963f097ad14f29f06854a01f575648a1ef82f30e562ccd3889717e339336040516100dd919061012b565b60405180910390a1610146565b600073ffffffffffffffffffffffffffffffffffffffff82169050919050565b6000610115826100ea565b9050919050565b6101258161010a565b82525050565b6000602082019050610140600083018461011c565b92915050565b6130f6806101556000396000f3fe608060405234801561001057600080fd5b50600436106101585760003560e01c80635bcfadb5116100c35780639d5a05291161007c5780639d5a052914610391578063a3ec138d146103af578063ba05269b146103e1578063bb9aa28f146103fd578063c3403ddf1461041b578063efb98bcf1461042557610158565b80635bcfadb5146102f4578063704802751461031057806383d948b71461032c5780638b5df08d1461034a5780638da5cb5b146103545780638e7ea5b21461037257610158565b80632d35a8a2116101155780632d35a8a21461020b5780633477ee2e1461022957806335b8e8201461025b57806338db6dd31461028c578063429b62e5146102a8578063462e91ec146102d857610158565b80630121b93f1461015d578063132002fc146101795780631785f53c146101975780631ea736e0146101b35780631ec6b60a146101d157806324d7806c146101db575b600080fd5b61017760048036038101906101729190611f46565b610443565b005b6101816106da565b60405161018e9190611f82565b60405180910390f35b6101b160048036038101906101ac9190611ffb565b6106e0565b005b6101bb61091a565b6040516101c89190611f82565b60405180910390f35b6101d9610920565b005b6101f560048036038101906101f09190611ffb565b610b1c565b6040516102029190612043565b60405180910390f35b610213610bc8565b6040516102209190611f82565b60405180910390f35b610243600480360381019061023e9190611f46565b610bce565b604051610252939291906120ee565b60405180910390f35b61027560048036038101906102709190611f46565b610c80565b60405161028392919061212c565b60405180910390f35b6102a660048036038101906102a19190611ffb565b610db0565b005b6102c260048036038101906102bd9190611ffb565b61100a565b6040516102cf9190612043565b60405180910390f35b6102f260048036038101906102ed91906121c1565b61102a565b005b61030e60048036038101906103099190611f46565b611255565b005b61032a60048036038101906103259190611ffb565b611419565b005b6103346115c5565b6040516103419190612043565b60405180910390f35b6103526115d8565b005b61035c611896565b604051610369919061221d565b60405180910390f35b61037a6118ba565b60405161038892919061212c565b60405180910390f35b610399611a27565b6040516103a69190612043565b60405180910390f35b6103c960048036038101906103c49190611ffb565b611a3a565b6040516103d893929190612238565b60405180910390f35b6103fb60048036038101906103f69190611ffb565b611a7e565b005b610405611ccc565b6040516104129190611f82565b60405180910390f35b610423611cd6565b005b61042d611ead565b60405161043a9190611f82565b60405180910390f35b600760009054906101000a900460ff16801561046c5750600760019054906101000a900460ff16155b6104ab576040517f08c379a00000000000000000000000000000000000000000000000000000000081526004016104a2906122bb565b60405180910390fd5b60035442106104ef576040517f08c379a00000000000000000000000000000000000000000000000000000000081526004016104e690612327565b60405180910390fd5b600460003373ffffffffffffffffffffffffffffffffffffffff1673ffffffffffffffffffffffffffffffffffffffff16815260200190815260200160002060000160019054906101000a900460ff161561057f576040517f08c379a000000000000000000000000000000000000000000000000000000000815260040161057690612393565b60405180910390fd5b60008111801561059157506006548111155b6105d0576040517f08c379a00000000000000000000000000000000000000000000000000000000081526004016105c7906123ff565b60405180910390fd5b6001600460003373ffffffffffffffffffffffffffffffffffffffff1673ffffffffffffffffffffffffffffffffffffffff16815260200190815260200160002060000160016101000a81548160ff02191690831515021790555080600460003373ffffffffffffffffffffffffffffffffffffffff1673ffffffffffffffffffffffffffffffffffffffff168152602001908152602001600020600101819055506005600082815260200190815260200160002060020160008154809291906106999061244e565b91905055507f4d99b957a2bc29a30ebd96a7be8e68fe50a3c701db28a91436490b7d53870ca433826040516106cf929190612496565b60405180910390a150565b60025481565b60008054906101000a900473ffffffffffffffffffffffffffffffffffffffff1673ffffffffffffffffffffffffffffffffffffffff163373ffffffffffffffffffffffffffffffffffffffff161461076e576040517f08c379a000000000000000000000000000000000000000000000000000000000815260040161076590612531565b60405180910390fd5b60008054906101000a900473ffffffffffffffffffffffffffffffffffffffff1673ffffffffffffffffffffffffffffffffffffffff168173ffffffffffffffffffffffffffffffffffffffff16036107fc576040517f08c379a00000000000000000000000000000000000000000000000000000000081526004016107f39061259d565b60405180910390fd5b600160008273ffffffffffffffffffffffffffffffffffffffff1673ffffffffffffffffffffffffffffffffffffffff16815260200190815260200160002060009054906101000a900460ff16610888576040517f08c379a000000000000000000000000000000000000000000000000000000000815260040161087f90612609565b60405180910390fd5b6000600160008373ffffffffffffffffffffffffffffffffffffffff1673ffffffffffffffffffffffffffffffffffffffff16815260200190815260200160002060006101000a81548160ff0219169083151502179055507fa3b62bc36326052d97ea62d63c3d60308ed4c3ea8ac079dd8499f1e9c4f80c0f8160405161090f919061221d565b60405180910390a150565b60035481565b600160003373ffffffffffffffffffffffffffffffffffffffff1673ffffffffffffffffffffffffffffffffffffffff16815260200190815260200160002060009054906101000a900460ff16806109c3575060008054906101000a900473ffffffffffffffffffffffffffffffffffffffff1673ffffffffffffffffffffffffffffffffffffffff163373ffffffffffffffffffffffffffffffffffffffff16145b610a02576040517f08c379a00000000000000000000000000000000000000000000000000000000081526004016109f99061269b565b60405180910390fd5b600760009054906101000a900460ff1615610a52576040517f08c379a0000000000000000000000000000000000000000000000000000000008152600401610a4990612707565b60405180910390fd5b600060065411610a97576040517f08c379a0000000000000000000000000000000000000000000000000000000008152600401610a8e90612773565b60405180910390fd5b6001600760006101000a81548160ff0219169083151502179055506000600760016101000a81548160ff02191690831515021790555060025442610adb9190612793565b6003819055507fcf33babc496bb6dc2942b39cb7b75766bbbadf7da50d176ff8c513e991140239600354604051610b129190611f82565b60405180910390a1565b6000600160008373ffffffffffffffffffffffffffffffffffffffff1673ffffffffffffffffffffffffffffffffffffffff16815260200190815260200160002060009054906101000a900460ff1680610bc1575060008054906101000a900473ffffffffffffffffffffffffffffffffffffffff1673ffffffffffffffffffffffffffffffffffffffff168273ffffffffffffffffffffffffffffffffffffffff16145b9050919050565b60065481565b6005602052806000526040600020600091509050806000015490806001018054610bf7906127f6565b80601f0160208091040260200160405190810160405280929190818152602001828054610c23906127f6565b8015610c705780601f10610c4557610100808354040283529160200191610c70565b820191906000526020600020905b815481529060010190602001808311610c5357829003601f168201915b5050505050908060020154905083565b606060008083118015610c9557506006548311155b610cd4576040517f08c379a0000000000000000000000000000000000000000000000000000000008152600401610ccb90612873565b60405180910390fd5b60006005600085815260200190815260200160002060405180606001604052908160008201548152602001600182018054610d0e906127f6565b80601f0160208091040260200160405190810160405280929190818152602001828054610d3a906127f6565b8015610d875780601f10610d5c57610100808354040283529160200191610d87565b820191906000526020600020905b815481529060010190602001808311610d6a57829003601f168201915b505050505081526020016002820154815250509050806020015181604001519250925050915091565b600160003373ffffffffffffffffffffffffffffffffffffffff1673ffffffffffffffffffffffffffffffffffffffff16815260200190815260200160002060009054906101000a900460ff1680610e53575060008054906101000a900473ffffffffffffffffffffffffffffffffffffffff1673ffffffffffffffffffffffffffffffffffffffff163373ffffffffffffffffffffffffffffffffffffffff16145b610e92576040517f08c379a0000000000000000000000000000000000000000000000000000000008152600401610e899061269b565b60405180910390fd5b600460008273ffffffffffffffffffffffffffffffffffffffff1673ffffffffffffffffffffffffffffffffffffffff16815260200190815260200160002060000160009054906101000a900460ff1615610f22576040517f08c379a0000000000000000000000000000000000000000000000000000000008152600401610f19906128df565b60405180910390fd5b60405180606001604052806001151581526020016000151581526020016000815250600460008373ffffffffffffffffffffffffffffffffffffffff1673ffffffffffffffffffffffffffffffffffffffff16815260200190815260200160002060008201518160000160006101000a81548160ff02191690831515021790555060208201518160000160016101000a81548160ff021916908315150217905550604082015181600101559050507fb6be2187d059cc2a55fe29e0e503b566e1e0f8c8780096e185429350acffd3dd81604051610fff919061221d565b60405180910390a150565b60016020528060005260406000206000915054906101000a900460ff1681565b600160003373ffffffffffffffffffffffffffffffffffffffff1673ffffffffffffffffffffffffffffffffffffffff16815260200190815260200160002060009054906101000a900460ff16806110cd575060008054906101000a900473ffffffffffffffffffffffffffffffffffffffff1673ffffffffffffffffffffffffffffffffffffffff163373ffffffffffffffffffffffffffffffffffffffff16145b61110c576040517f08c379a00000000000000000000000000000000000000000000000000000000081526004016111039061269b565b60405180910390fd5b600760009054906101000a900460ff161561115c576040517f08c379a000000000000000000000000000000000000000000000000000000000815260040161115390612971565b60405180910390fd5b6006600081548092919061116f9061244e565b91905055506040518060600160405280600654815260200183838080601f016020809104026020016040519081016040528093929190818152602001838380828437600081840152601f19601f820116905080830192505050505050508152602001600081525060056000600654815260200190815260200160002060008201518160000155602082015181600101908161120a9190612b6c565b50604082015181600201559050507ff29562dad1599aea0ebb142466120aab326d5efa8f839df82a9c064bf78e89388282604051611249929190612c7a565b60405180910390a15050565b600160003373ffffffffffffffffffffffffffffffffffffffff1673ffffffffffffffffffffffffffffffffffffffff16815260200190815260200160002060009054906101000a900460ff16806112f8575060008054906101000a900473ffffffffffffffffffffffffffffffffffffffff1673ffffffffffffffffffffffffffffffffffffffff163373ffffffffffffffffffffffffffffffffffffffff16145b611337576040517f08c379a000000000000000000000000000000000000000000000000000000000815260040161132e9061269b565b60405180910390fd5b600760009054906101000a900460ff1615611387576040517f08c379a000000000000000000000000000000000000000000000000000000000815260040161137e90612d10565b60405180910390fd5b600081116113ca576040517f08c379a00000000000000000000000000000000000000000000000000000000081526004016113c190612d7c565b60405180910390fd5b603c816113d79190612d9c565b6002819055507f7b618bdde7807a5fed51719c1d5af2441afd29bee82e35b7c4f2e95b0cac9bca60025460405161140e9190611f82565b60405180910390a150565b60008054906101000a900473ffffffffffffffffffffffffffffffffffffffff1673ffffffffffffffffffffffffffffffffffffffff163373ffffffffffffffffffffffffffffffffffffffff16146114a7576040517f08c379a000000000000000000000000000000000000000000000000000000000815260040161149e90612531565b60405180910390fd5b600160008273ffffffffffffffffffffffffffffffffffffffff1673ffffffffffffffffffffffffffffffffffffffff16815260200190815260200160002060009054906101000a900460ff1615611534576040517f08c379a000000000000000000000000000000000000000000000000000000000815260040161152b90612e2a565b60405180910390fd5b60018060008373ffffffffffffffffffffffffffffffffffffffff1673ffffffffffffffffffffffffffffffffffffffff16815260200190815260200160002060006101000a81548160ff0219169083151502179055507f44d6d25963f097ad14f29f06854a01f575648a1ef82f30e562ccd3889717e339816040516115ba919061221d565b60405180910390a150565b600760009054906101000a900460ff1681565b600160003373ffffffffffffffffffffffffffffffffffffffff1673ffffffffffffffffffffffffffffffffffffffff16815260200190815260200160002060009054906101000a900460ff168061167b575060008054906101000a900473ffffffffffffffffffffffffffffffffffffffff1673ffffffffffffffffffffffffffffffffffffffff163373ffffffffffffffffffffffffffffffffffffffff16145b6116ba576040517f08c379a00000000000000000000000000000000000000000000000000000000081526004016116b19061269b565b60405180910390fd5b6000600760006101000a81548160ff0219169083151502179055506000600760016101000a81548160ff02191690831515021790555060006003819055506000600190505b60065481116117375760006005600083815260200190815260200160002060020181905550808061172f9061244e565b9150506116ff565b50600460003373ffffffffffffffffffffffffffffffffffffffff1673ffffffffffffffffffffffffffffffffffffffff16815260200190815260200160002060000160019054906101000a900460ff1615611868576000600460003373ffffffffffffffffffffffffffffffffffffffff1673ffffffffffffffffffffffffffffffffffffffff16815260200190815260200160002060000160016101000a81548160ff0219169083151502179055506000600460003373ffffffffffffffffffffffffffffffffffffffff1673ffffffffffffffffffffffffffffffffffffffff168152602001908152602001600020600101819055507ff2db1fecc97a022760b3dc1a11e50d6332862fec18841df6ac09d6dcc1d363763360405161185f919061221d565b60405180910390a15b7f7a19ed057db79e3c2fa0b97a54b43bef4fce74b31bb6c01af514b9a18a7f70ab60405160405180910390a1565b60008054906101000a900473ffffffffffffffffffffffffffffffffffffffff1681565b60606000600760019054906101000a900460ff16806118db57506003544210155b61191a576040517f08c379a000000000000000000000000000000000000000000000000000000000815260040161191190612e96565b60405180910390fd5b600060606000600190505b6006548111611a1a578260056000838152602001908152602001600020600201541115611a075760056000828152602001908152602001600020600201549250600560008281526020019081526020016000206001018054611986906127f6565b80601f01602080910402602001604051908101604052809291908181526020018280546119b2906127f6565b80156119ff5780601f106119d4576101008083540402835291602001916119ff565b820191906000526020600020905b8154815290600101906020018083116119e257829003601f168201915b505050505091505b8080611a129061244e565b915050611925565b5080829350935050509091565b600760019054906101000a900460ff1681565b60046020528060005260406000206000915090508060000160009054906101000a900460ff16908060000160019054906101000a900460ff16908060010154905083565b600160003373ffffffffffffffffffffffffffffffffffffffff1673ffffffffffffffffffffffffffffffffffffffff16815260200190815260200160002060009054906101000a900460ff1680611b21575060008054906101000a900473ffffffffffffffffffffffffffffffffffffffff1673ffffffffffffffffffffffffffffffffffffffff163373ffffffffffffffffffffffffffffffffffffffff16145b611b60576040517f08c379a0000000000000000000000000000000000000000000000000000000008152600401611b579061269b565b60405180910390fd5b600460008273ffffffffffffffffffffffffffffffffffffffff1673ffffffffffffffffffffffffffffffffffffffff16815260200190815260200160002060000160019054906101000a900460ff16611bef576040517f08c379a0000000000000000000000000000000000000000000000000000000008152600401611be690612f02565b60405180910390fd5b6000600460008373ffffffffffffffffffffffffffffffffffffffff1673ffffffffffffffffffffffffffffffffffffffff16815260200190815260200160002060000160016101000a81548160ff0219169083151502179055506000600460008373ffffffffffffffffffffffffffffffffffffffff1673ffffffffffffffffffffffffffffffffffffffff168152602001908152602001600020600101819055507ff2db1fecc97a022760b3dc1a11e50d6332862fec18841df6ac09d6dcc1d3637681604051611cc1919061221d565b60405180910390a150565b6000600654905090565b600760009054906101000a900460ff16611d25576040517f08c379a0000000000000000000000000000000000000000000000000000000008152600401611d1c90612f6e565b60405180910390fd5b600760019054906101000a900460ff1615611d75576040517f08c379a0000000000000000000000000000000000000000000000000000000008152600401611d6c90612fda565b60405180910390fd5b60008054906101000a900473ffffffffffffffffffffffffffffffffffffffff1673ffffffffffffffffffffffffffffffffffffffff163373ffffffffffffffffffffffffffffffffffffffff161480611e185750600160003373ffffffffffffffffffffffffffffffffffffffff1673ffffffffffffffffffffffffffffffffffffffff16815260200190815260200160002060009054906101000a900460ff165b80611e2557506003544210155b611e64576040517f08c379a0000000000000000000000000000000000000000000000000000000008152600401611e5b9061306c565b60405180910390fd5b6001600760016101000a81548160ff0219169083151502179055507f7a19ed057db79e3c2fa0b97a54b43bef4fce74b31bb6c01af514b9a18a7f70ab60405160405180910390a1565b6000600760009054906101000a900460ff161580611ed75750600760019054906101000a900460ff165b80611ee457506003544210155b15611ef25760009050611f03565b42600354611f00919061308c565b90505b90565b600080fd5b600080fd5b6000819050919050565b611f2381611f10565b8114611f2e57600080fd5b50565b600081359050611f4081611f1a565b92915050565b600060208284031215611f5c57611f5b611f06565b5b6000611f6a84828501611f31565b91505092915050565b611f7c81611f10565b82525050565b6000602082019050611f976000830184611f73565b92915050565b600073ffffffffffffffffffffffffffffffffffffffff82169050919050565b6000611fc882611f9d565b9050919050565b611fd881611fbd565b8114611fe357600080fd5b50565b600081359050611ff581611fcf565b92915050565b60006020828403121561201157612010611f06565b5b600061201f84828501611fe6565b91505092915050565b60008115159050919050565b61203d81612028565b82525050565b60006020820190506120586000830184612034565b92915050565b600081519050919050565b600082825260208201905092915050565b60005b8381101561209857808201518184015260208101905061207d565b60008484015250505050565b6000601f19601f8301169050919050565b60006120c08261205e565b6120ca8185612069565b93506120da81856020860161207a565b6120e3816120a4565b840191505092915050565b60006060820190506121036000830186611f73565b818103602083015261211581856120b5565b90506121246040830184611f73565b949350505050565b6000604082019050818103600083015261214681856120b5565b90506121556020830184611f73565b9392505050565b600080fd5b600080fd5b600080fd5b60008083601f8401126121815761218061215c565b5b8235905067ffffffffffffffff81111561219e5761219d612161565b5b6020830191508360018202830111156121ba576121b9612166565b5b9250929050565b600080602083850312156121d8576121d7611f06565b5b600083013567ffffffffffffffff8111156121f6576121f5611f0b565b5b6122028582860161216b565b92509250509250929050565b61221781611fbd565b82525050565b6000602082019050612232600083018461220e565b92915050565b600060608201905061224d6000830186612034565b61225a6020830185612034565b6122676040830184611f73565b949350505050565b7f566f74696e67206973206e6f7420616374697665000000000000000000000000600082015250565b60006122a5601483612069565b91506122b08261226f565b602082019050919050565b600060208201905081810360008301526122d481612298565b9050919050565b7f566f74696e6720706572696f642068617320656e646564000000000000000000600082015250565b6000612311601783612069565b915061231c826122db565b602082019050919050565b6000602082019050818103600083015261234081612304565b9050919050565b7f596f75206861766520616c726561647920766f74656400000000000000000000600082015250565b600061237d601683612069565b915061238882612347565b602082019050919050565b600060208201905081810360008301526123ac81612370565b9050919050565b7f496e76616c69642063616e646964617465000000000000000000000000000000600082015250565b60006123e9601183612069565b91506123f4826123b3565b602082019050919050565b60006020820190508181036000830152612418816123dc565b9050919050565b7f4e487b7100000000000000000000000000000000000000000000000000000000600052601160045260246000fd5b600061245982611f10565b91507fffffffffffffffffffffffffffffffffffffffffffffffffffffffffffffffff820361248b5761248a61241f565b5b600182019050919050565b60006040820190506124ab600083018561220e565b6124b86020830184611f73565b9392505050565b7f4f6e6c79206f776e65722063616e2063616c6c20746869732066756e6374696f60008201527f6e00000000000000000000000000000000000000000000000000000000000000602082015250565b600061251b602183612069565b9150612526826124bf565b604082019050919050565b6000602082019050818103600083015261254a8161250e565b9050919050565b7f43616e6e6f742072656d6f7665206f776e65722066726f6d2061646d696e7300600082015250565b6000612587601f83612069565b915061259282612551565b602082019050919050565b600060208201905081810360008301526125b68161257a565b9050919050565b7f41646472657373206973206e6f7420616e2061646d696e000000000000000000600082015250565b60006125f3601783612069565b91506125fe826125bd565b602082019050919050565b60006020820190508181036000830152612622816125e6565b9050919050565b7f4f6e6c792061646d696e2063616e2063616c6c20746869732066756e6374696f60008201527f6e00000000000000000000000000000000000000000000000000000000000000602082015250565b6000612685602183612069565b915061269082612629565b604082019050919050565b600060208201905081810360008301526126b481612678565b9050919050565b7f566f74696e672068617320616c72656164792073746172746564000000000000600082015250565b60006126f1601a83612069565b91506126fc826126bb565b602082019050919050565b60006020820190508181036000830152612720816126e4565b9050919050565b7f4e6f2063616e6469646174657320726567697374657265640000000000000000600082015250565b600061275d601883612069565b915061276882612727565b602082019050919050565b6000602082019050818103600083015261278c81612750565b9050919050565b600061279e82611f10565b91506127a983611f10565b92508282019050808211156127c1576127c061241f565b5b92915050565b7f4e487b7100000000000000000000000000000000000000000000000000000000600052602260045260246000fd5b6000600282049050600182168061280e57607f821691505b602082108103612821576128206127c7565b5b50919050565b7f496e76616c69642063616e646964617465204944000000000000000000000000600082015250565b600061285d601483612069565b915061286882612827565b602082019050919050565b6000602082019050818103600083015261288c81612850565b9050919050565b7f566f74657220697320616c726561647920726567697374657265640000000000600082015250565b60006128c9601b83612069565b91506128d482612893565b602082019050919050565b600060208201905081810360008301526128f8816128bc565b9050919050565b7f43616e6e6f74206164642063616e64696461746520616674657220766f74696e60008201527f6720686173207374617274656400000000000000000000000000000000000000602082015250565b600061295b602d83612069565b9150612966826128ff565b604082019050919050565b6000602082019050818103600083015261298a8161294e565b9050919050565b7f4e487b7100000000000000000000000000000000000000000000000000000000600052604160045260246000fd5b60008190508160005260206000209050919050565b60006020601f8301049050919050565b600082821b905092915050565b600060088302612a227fffffffffffffffffffffffffffffffffffffffffffffffffffffffffffffffff826129e5565b612a2c86836129e5565b95508019841693508086168417925050509392505050565b6000819050919050565b6000612a69612a64612a5f84611f10565b612a44565b611f10565b9050919050565b6000819050919050565b612a8383612a4e565b612a97612a8f82612a70565b8484546129f2565b825550505050565b600090565b612aac612a9f565b612ab7818484612a7a565b505050565b5b81811015612adb57612ad0600082612aa4565b600181019050612abd565b5050565b601f821115612b2057612af1816129c0565b612afa846129d5565b81016020851015612b09578190505b612b1d612b15856129d5565b830182612abc565b50505b505050565b600082821c905092915050565b6000612b4360001984600802612b25565b1980831691505092915050565b6000612b5c8383612b32565b9150826002028217905092915050565b612b758261205e565b67ffffffffffffffff811115612b8e57612b8d612991565b5b612b9882546127f6565b612ba3828285612adf565b600060209050601f831160018114612bd65760008415612bc4578287015190505b612bce8582612b50565b865550612c36565b601f198416612be4866129c0565b60005b82811015612c0c57848901518255600182019150602085019450602081019050612be7565b86831015612c295784890151612c25601f891682612b32565b8355505b6001600288020188555050505b505050505050565b82818337600083830152505050565b6000612c598385612069565b9350612c66838584612c3e565b612c6f836120a4565b840190509392505050565b60006020820190508181036000830152612c95818486612c4d565b90509392505050565b7f43616e6e6f74206368616e6765206475726174696f6e207768696c6520766f7460008201527f696e672069732061637469766500000000000000000000000000000000000000602082015250565b6000612cfa602d83612069565b9150612d0582612c9e565b604082019050919050565b60006020820190508181036000830152612d2981612ced565b9050919050565b7f4475726174696f6e206d7573742062652067726561746572207468616e203000600082015250565b6000612d66601f83612069565b9150612d7182612d30565b602082019050919050565b60006020820190508181036000830152612d9581612d59565b9050919050565b6000612da782611f10565b9150612db283611f10565b9250828202612dc081611f10565b91508282048414831517612dd757612dd661241f565b5b5092915050565b7f4164647265737320697320616c726561647920616e2061646d696e0000000000600082015250565b6000612e14601b83612069565b9150612e1f82612dde565b602082019050919050565b60006020820190508181036000830152612e4381612e07565b9050919050565b7f566f74696e6720686173206e6f7420656e646564207965740000000000000000600082015250565b6000612e80601883612069565b9150612e8b82612e4a565b602082019050919050565b60006020820190508181036000830152612eaf81612e73565b9050919050565b7f566f74657220686173206e6f7420766f74656420796574000000000000000000600082015250565b6000612eec601783612069565b9150612ef782612eb6565b602082019050919050565b60006020820190508181036000830152612f1b81612edf565b9050919050565b7f566f74696e6720686173206e6f74207374617274656420796574000000000000600082015250565b6000612f58601a83612069565b9150612f6382612f22565b602082019050919050565b60006020820190508181036000830152612f8781612f4b565b9050919050565b7f566f74696e672068617320616c726561647920656e6465640000000000000000600082015250565b6000612fc4601883612069565b9150612fcf82612f8e565b602082019050919050565b60006020820190508181036000830152612ff381612fb7565b9050919050565b7f4f6e6c792061646d696e2063616e20656e6420766f74696e67206265666f726560008201527f2074696d65206c696d6974000000000000000000000000000000000000000000602082015250565b6000613056602b83612069565b915061306182612ffa565b604082019050919050565b6000602082019050818103600083015261308581613049565b9050919050565b600061309782611f10565b91506130a283611f10565b92508282039050818111156130ba576130b961241f565b5b9291505056fea26469706673582212209fd020f443326bc3998fdbbc6b0984cf2b4c27c4e7d066e2b3789ee34a4f98b764736f6c634300081c0033",
  "linkReferences": {},
  "deployedLinkReferences": {}
}