{
  "_format": "hh-sol-artifact-1",
  "contractName": "MyContract",
  "sourceName": "contracts/MyContract.sol",
  "abi": [
    {
      "inputs": [],
      "stateMutability": "nonpayable",
      "type": "constructor"
    },
    {
      "anonymous": false,
      "inputs": [
        {
          "indexed": false,
          "internalType": "address",
          "name": "admin",
          "type": "address"
        }
      ],
      "name": "AdminAdded",
      "type": "event"
    },
    {
      "anonymous": false,
      "inputs": [
        {
          "indexed": false,
          "internalType": "address",
          "name": "admin",
          "type": "address"
        }
      ],
      "name": "AdminRemoved",
      "type": "event"
    },
    {
      "anonymous": false,
      "inputs": [
        {
          "indexed": false,
          "internalType": "string",
          "name": "name",
          "type": "string"
        }
      ],
      "name": "CandidateAdded",
      "type": "event"
    },
    {
      "anonymous": false,
      "inputs": [
        {
          "indexed": false,
          "internalType": "uint256",
          "name": "candidateId",
          "type": "uint256"
        }
      ],
      "name": "CandidateRemoved",
      "type": "event"
    },
    {
      "anonymous": false,
      "inputs": [
        {
          "indexed": false,
          "internalType": "address",
          "name": "voter",
          "type": "address"
        },
        {
          "indexed": false,
          "internalType": "uint256",
          "name": "candidateId",
          "type": "uint256"
        }
      ],
      "name": "Voted",
      "type": "event"
    },
    {
      "anonymous": false,
      "inputs": [
        {
          "indexed": false,
          "internalType": "address",
          "name": "voter",
          "type": "address"
        }
      ],
      "name": "VoterRegistered",
      "type": "event"
    },
    {
      "anonymous": false,
      "inputs": [
        {
          "indexed": false,
          "internalType": "address",
          "name": "voter",
          "type": "address"
        }
      ],
      "name": "VoterReset",
      "type": "event"
    },
    {
      "anonymous": false,
      "inputs": [
        {
          "indexed": false,
          "internalType": "uint256",
          "name": "newDuration",
          "type": "uint256"
        }
      ],
      "name": "VotingDurationChanged",
      "type": "event"
    },
    {
      "anonymous": false,
      "inputs": [],
      "name": "VotingEnded",
      "type": "event"
    },
    {
      "anonymous": false,
      "inputs": [
        {
          "indexed": false,
          "internalType": "uint256",
          "name": "endTime",
          "type": "uint256"
        }
      ],
      "name": "VotingStarted",
      "type": "event"
    },
    {
      "inputs": [
        {
          "internalType": "address",
          "name": "_admin",
          "type": "address"
        }
      ],
      "name": "addAdmin",
      "outputs": [],
      "stateMutability": "nonpayable",
      "type": "function"
    },
    {
      "inputs": [
        {
          "internalType": "string",
          "name": "name",
          "type": "string"
        }
      ],
      "name": "addCandidate",
      "outputs": [],
      "stateMutability": "nonpayable",
      "type": "function"
    },
    {
      "inputs": [
        {
          "internalType": "address",
          "name": "",
          "type": "address"
        }
      ],
      "name": "admins",
      "outputs": [
        {
          "internalType": "bool",
          "name": "",
          "type": "bool"
        }
      ],
      "stateMutability": "view",
      "type": "function"
    },
    {
      "inputs": [
        {
          "internalType": "uint256",
          "name": "",
          "type": "uint256"
        }
      ],
      "name": "candidates",
      "outputs": [
        {
          "internalType": "uint256",
          "name": "id",
          "type": "uint256"
        },
        {
          "internalType": "string",
          "name": "name",
          "type": "string"
        },
        {
          "internalType": "uint256",
          "name": "voteCount",
          "type": "uint256"
        }
      ],
      "stateMutability": "view",
      "type": "function"
    },
    {
      "inputs": [],
      "name": "candidatesCount",
      "outputs": [
        {
          "internalType": "uint256",
          "name": "",
          "type": "uint256"
        }
      ],
      "stateMutability": "view",
      "type": "function"
    },
    {
      "inputs": [],
      "name": "endVoting",
      "outputs": [],
      "stateMutability": "nonpayable",
      "type": "function"
    },
    {
      "inputs": [],
      "name": "getAllAdmins",
      "outputs": [
        {
          "internalType": "address[]",
          "name": "",
          "type": "address[]"
        }
      ],
      "stateMutability": "view",
      "type": "function"
    },
    {
      "inputs": [
        {
          "internalType": "uint256",
          "name": "candidateId",
          "type": "uint256"
        }
      ],
      "name": "getCandidate",
      "outputs": [
        {
          "internalType": "string",
          "name": "",
          "type": "string"
        },
        {
          "internalType": "uint256",
          "name": "",
          "type": "uint256"
        }
      ],
      "stateMutability": "view",
      "type": "function"
    },
    {
      "inputs": [],
      "name": "getCandidatesCount",
      "outputs": [
        {
          "internalType": "uint256",
          "name": "",
          "type": "uint256"
        }
      ],
      "stateMutability": "view",
      "type": "function"
    },
    {
      "inputs": [],
      "name": "getRemainingTime",
      "outputs": [
        {
          "internalType": "uint256",
          "name": "",
          "type": "uint256"
        }
      ],
      "stateMutability": "view",
      "type": "function"
    },
    {
      "inputs": [],
      "name": "getWinner",
      "outputs": [
        {
          "internalType": "string",
          "name": "winnerName",
          "type": "string"
        },
        {
          "internalType": "uint256",
          "name": "winnerVoteCount",
          "type": "uint256"
        }
      ],
      "stateMutability": "view",
      "type": "function"
    },
    {
      "inputs": [
        {
          "internalType": "address",
          "name": "_address",
          "type": "address"
        }
      ],
      "name": "isAdmin",
      "outputs": [
        {
          "internalType": "bool",
          "name": "",
          "type": "bool"
        }
      ],
      "stateMutability": "view",
      "type": "function"
    },
    {
      "inputs": [],
      "name": "owner",
      "outputs": [
        {
          "internalType": "address",
          "name": "",
          "type": "address"
        }
      ],
      "stateMutability": "view",
      "type": "function"
    },
    {
      "inputs": [
        {
          "internalType": "address",
          "name": "_voter",
          "type": "address"
        }
      ],
      "name": "registerVoter",
      "outputs": [],
      "stateMutability": "nonpayable",
      "type": "function"
    },
    {
      "inputs": [
        {
          "internalType": "address",
          "name": "_admin",
          "type": "address"
        }
      ],
      "name": "removeAdmin",
      "outputs": [],
      "stateMutability": "nonpayable",
      "type": "function"
    },
    {
      "inputs": [
        {
          "internalType": "uint256",
          "name": "candidateId",
          "type": "uint256"
        }
      ],
      "name": "removeCandidate",
      "outputs": [],
      "stateMutability": "nonpayable",
      "type": "function"
    },
    {
      "inputs": [
        {
          "internalType": "address",
          "name": "voterAddress",
          "type": "address"
        }
      ],
      "name": "resetVoter",
      "outputs": [],
      "stateMutability": "nonpayable",
      "type": "function"
    },
    {
      "inputs": [],
      "name": "resetVotingState",
      "outputs": [],
      "stateMutability": "nonpayable",
      "type": "function"
    },
    {
      "inputs": [
        {
          "internalType": "uint256",
          "name": "durationInMinutes",
          "type": "uint256"
        }
      ],
      "name": "setVotingDuration",
      "outputs": [],
      "stateMutability": "nonpayable",
      "type": "function"
    },
    {
      "inputs": [],
      "name": "startVoting",
      "outputs": [],
      "stateMutability": "nonpayable",
      "type": "function"
    },
    {
      "inputs": [
        {
          "internalType": "uint256",
          "name": "candidateId",
          "type": "uint256"
        }
      ],
      "name": "vote",
      "outputs": [],
      "stateMutability": "nonpayable",
      "type": "function"
    },
    {
      "inputs": [
        {
          "internalType": "address",
          "name": "",
          "type": "address"
        }
      ],
      "name": "voters",
      "outputs": [
        {
          "internalType": "bool",
          "name": "isRegistered",
          "type": "bool"
        },
        {
          "internalType": "bool",
          "name": "hasVoted",
          "type": "bool"
        },
        {
          "internalType": "uint256",
          "name": "votedFor",
          "type": "uint256"
        }
      ],
      "stateMutability": "view",
      "type": "function"
    },
    {
      "inputs": [],
      "name": "votingDuration",
      "outputs": [
        {
          "internalType": "uint256",
          "name": "",
          "type": "uint256"
        }
      ],
      "stateMutability": "view",
      "type": "function"
    },
    {
      "inputs": [],
      "name": "votingEndTime",
      "outputs": [
        {
          "internalType": "uint256",
          "name": "",
          "type": "uint256"
        }
      ],
      "stateMutability": "view",
      "type": "function"
    },
    {
      "inputs": [],
      "name": "votingEnded",
      "outputs": [
        {
          "internalType": "bool",
          "name": "",
          "type": "bool"
        }
      ],
      "stateMutability": "view",
      "type": "function"
    },
    {
      "inputs": [],
      "name": "votingStarted",
      "outputs": [
        {
          "internalType": "bool",
          "name": "",
          "type": "bool"
        }
      ],
      "stateMutability": "view",
      "type": "function"
    }
  ],
  "bytecode": "0x6080604052610e1060035534801561001657600080fd5b50336000806101000a81548173ffffffffffffffffffffffffffffffffffffffff021916908373ffffffffffffffffffffffffffffffffffffffff16021790555060018060003373ffffffffffffffffffffffffffffffffffffffff1673ffffffffffffffffffffffffffffffffffffffff16815260200190815260200160002060006101000a81548160ff0219169083151502179055507f44d6d25963f097ad14f29f06854a01f575648a1ef82f30e562ccd3889717e339336040516100dd919061012b565b60405180910390a1610146565b600073ffffffffffffffffffffffffffffffffffffffff82169050919050565b6000610115826100ea565b9050919050565b6101258161010a565b82525050565b6000602082019050610140600083018461011c565b92915050565b613ce8806101556000396000f3fe608060405234801561001057600080fd5b506004361061018e5760003560e01c80635bcfadb5116100de5780639d5a052911610097578063bb9aa28f11610071578063bb9aa28f1461044f578063c3403ddf1461046d578063e9523c9714610477578063efb98bcf146104955761018e565b80639d5a0529146103e3578063a3ec138d14610401578063ba05269b146104335761018e565b80635bcfadb514610346578063704802751461036257806383d948b71461037e5780638b5df08d1461039c5780638da5cb5b146103a65780638e7ea5b2146103c45761018e565b806324d7806c1161014b57806335b8e8201161012557806335b8e820146102ad57806338db6dd3146102de578063429b62e5146102fa578063462e91ec1461032a5761018e565b806324d7806c1461022d5780632d35a8a21461025d5780633477ee2e1461027b5761018e565b80630121b93f1461019357806309e9d7e2146101af578063132002fc146101cb5780631785f53c146101e95780631ea736e0146102055780631ec6b60a14610223575b600080fd5b6101ad60048036038101906101a89190612841565b6104b3565b005b6101c960048036038101906101c49190612841565b61074a565b005b6101d3610a5a565b6040516101e0919061287d565b60405180910390f35b61020360048036038101906101fe91906128f6565b610a60565b005b61020d610e21565b60405161021a919061287d565b60405180910390f35b61022b610e27565b005b610247600480360381019061024291906128f6565b611023565b604051610254919061293e565b60405180910390f35b6102656110cf565b604051610272919061287d565b60405180910390f35b61029560048036038101906102909190612841565b6110d5565b6040516102a4939291906129e9565b60405180910390f35b6102c760048036038101906102c29190612841565b611187565b6040516102d5929190612a27565b60405180910390f35b6102f860048036038101906102f391906128f6565b6112b7565b005b610314600480360381019061030f91906128f6565b611511565b604051610321919061293e565b60405180910390f35b610344600480360381019061033f9190612abc565b611531565b005b610360600480360381019061035b9190612841565b61175c565b005b61037c600480360381019061037791906128f6565b611920565b005b610386611b83565b604051610393919061293e565b60405180910390f35b6103a4611b96565b005b6103ae611e54565b6040516103bb9190612b18565b60405180910390f35b6103cc611e78565b6040516103da929190612a27565b60405180910390f35b6103eb611fe5565b6040516103f8919061293e565b60405180910390f35b61041b600480360381019061041691906128f6565b611ff8565b60405161042a93929190612b33565b60405180910390f35b61044d600480360381019061044891906128f6565b61203c565b005b61045761228a565b604051610464919061287d565b60405180910390f35b610475612294565b005b61047f61246b565b60405161048c9190612c28565b60405180910390f35b61049d61274b565b6040516104aa919061287d565b60405180910390f35b600860009054906101000a900460ff1680156104dc5750600860019054906101000a900460ff16155b61051b576040517f08c379a000000000000000000000000000000000000000000000000000000000815260040161051290612c96565b60405180910390fd5b600454421061055f576040517f08c379a000000000000000000000000000000000000000000000000000000000815260040161055690612d02565b60405180910390fd5b600560003373ffffffffffffffffffffffffffffffffffffffff1673ffffffffffffffffffffffffffffffffffffffff16815260200190815260200160002060000160019054906101000a900460ff16156105ef576040517f08c379a00000000000000000000000000000000000000000000000000000000081526004016105e690612d6e565b60405180910390fd5b60008111801561060157506007548111155b610640576040517f08c379a000000000000000000000000000000000000000000000000000000000815260040161063790612dda565b60405180910390fd5b6001600560003373ffffffffffffffffffffffffffffffffffffffff1673ffffffffffffffffffffffffffffffffffffffff16815260200190815260200160002060000160016101000a81548160ff02191690831515021790555080600560003373ffffffffffffffffffffffffffffffffffffffff1673ffffffffffffffffffffffffffffffffffffffff1681526020019081526020016000206001018190555060066000828152602001908152602001600020600201600081548092919061070990612e29565b91905055507f4d99b957a2bc29a30ebd96a7be8e68fe50a3c701db28a91436490b7d53870ca4338260405161073f929190612e71565b60405180910390a150565b600160003373ffffffffffffffffffffffffffffffffffffffff1673ffffffffffffffffffffffffffffffffffffffff16815260200190815260200160002060009054906101000a900460ff16806107ed575060008054906101000a900473ffffffffffffffffffffffffffffffffffffffff1673ffffffffffffffffffffffffffffffffffffffff163373ffffffffffffffffffffffffffffffffffffffff16145b61082c576040517f08c379a000000000000000000000000000000000000000000000000000000000815260040161082390612f0c565b60405180910390fd5b600860009054906101000a900460ff161561087c576040517f08c379a000000000000000000000000000000000000000000000000000000000815260040161087390612f9e565b60405180910390fd5b60008111801561088e57506007548111155b6108cd576040517f08c379a00000000000000000000000000000000000000000000000000000000081526004016108c49061300a565b60405180910390fd5b6007548103610960576006600082815260200190815260200160002060008082016000905560018201600061090291906127a4565b600282016000905550506007600081548092919061091f9061302a565b91905055507f294c5a9bc8a39e6e06502bc8da429980f6c7b0990d75b682c12cb8705e3ace8581604051610953919061287d565b60405180910390a1610a57565b6006600060075481526020019081526020016000206006600083815260200190815260200160002060008201548160000155600182018160010190816109a691906132a4565b50600282015481600201559050508060066000838152602001908152602001600020600001819055506006600060075481526020019081526020016000206000808201600090556001820160006109fd91906127a4565b6002820160009055505060076000815480929190610a1a9061302a565b91905055507f294c5a9bc8a39e6e06502bc8da429980f6c7b0990d75b682c12cb8705e3ace8581604051610a4e919061287d565b60405180910390a15b50565b60035481565b60008054906101000a900473ffffffffffffffffffffffffffffffffffffffff1673ffffffffffffffffffffffffffffffffffffffff163373ffffffffffffffffffffffffffffffffffffffff1614610aee576040517f08c379a0000000000000000000000000000000000000000000000000000000008152600401610ae5906133fe565b60405180910390fd5b60008054906101000a900473ffffffffffffffffffffffffffffffffffffffff1673ffffffffffffffffffffffffffffffffffffffff168173ffffffffffffffffffffffffffffffffffffffff1603610b7c576040517f08c379a0000000000000000000000000000000000000000000000000000000008152600401610b739061346a565b60405180910390fd5b600160008273ffffffffffffffffffffffffffffffffffffffff1673ffffffffffffffffffffffffffffffffffffffff16815260200190815260200160002060009054906101000a900460ff16610c08576040517f08c379a0000000000000000000000000000000000000000000000000000000008152600401610bff906134d6565b60405180910390fd5b6000600160008373ffffffffffffffffffffffffffffffffffffffff1673ffffffffffffffffffffffffffffffffffffffff16815260200190815260200160002060006101000a81548160ff02191690831515021790555060005b600280549050811015610de6578173ffffffffffffffffffffffffffffffffffffffff1660028281548110610c9b57610c9a6134f6565b5b9060005260206000200160009054906101000a900473ffffffffffffffffffffffffffffffffffffffff1673ffffffffffffffffffffffffffffffffffffffff1603610dd95760026001600280549050610cf59190613525565b81548110610d0657610d056134f6565b5b9060005260206000200160009054906101000a900473ffffffffffffffffffffffffffffffffffffffff1660028281548110610d4557610d446134f6565b5b9060005260206000200160006101000a81548173ffffffffffffffffffffffffffffffffffffffff021916908373ffffffffffffffffffffffffffffffffffffffff1602179055506002805480610d9f57610d9e613559565b5b6001900381819060005260206000200160006101000a81549073ffffffffffffffffffffffffffffffffffffffff02191690559055610de6565b8080600101915050610c63565b507fa3b62bc36326052d97ea62d63c3d60308ed4c3ea8ac079dd8499f1e9c4f80c0f81604051610e169190612b18565b60405180910390a150565b60045481565b600160003373ffffffffffffffffffffffffffffffffffffffff1673ffffffffffffffffffffffffffffffffffffffff16815260200190815260200160002060009054906101000a900460ff1680610eca575060008054906101000a900473ffffffffffffffffffffffffffffffffffffffff1673ffffffffffffffffffffffffffffffffffffffff163373ffffffffffffffffffffffffffffffffffffffff16145b610f09576040517f08c379a0000000000000000000000000000000000000000000000000000000008152600401610f0090612f0c565b60405180910390fd5b600860009054906101000a900460ff1615610f59576040517f08c379a0000000000000000000000000000000000000000000000000000000008152600401610f50906135d4565b60405180910390fd5b600060075411610f9e576040517f08c379a0000000000000000000000000000000000000000000000000000000008152600401610f9590613640565b60405180910390fd5b6001600860006101000a81548160ff0219169083151502179055506000600860016101000a81548160ff02191690831515021790555060035442610fe29190613660565b6004819055507fcf33babc496bb6dc2942b39cb7b75766bbbadf7da50d176ff8c513e991140239600454604051611019919061287d565b60405180910390a1565b6000600160008373ffffffffffffffffffffffffffffffffffffffff1673ffffffffffffffffffffffffffffffffffffffff16815260200190815260200160002060009054906101000a900460ff16806110c8575060008054906101000a900473ffffffffffffffffffffffffffffffffffffffff1673ffffffffffffffffffffffffffffffffffffffff168273ffffffffffffffffffffffffffffffffffffffff16145b9050919050565b60075481565b60066020528060005260406000206000915090508060000154908060010180546110fe90613082565b80601f016020809104026020016040519081016040528092919081815260200182805461112a90613082565b80156111775780601f1061114c57610100808354040283529160200191611177565b820191906000526020600020905b81548152906001019060200180831161115a57829003601f168201915b5050505050908060020154905083565b60606000808311801561119c57506007548311155b6111db576040517f08c379a00000000000000000000000000000000000000000000000000000000081526004016111d29061300a565b60405180910390fd5b6000600660008581526020019081526020016000206040518060600160405290816000820154815260200160018201805461121590613082565b80601f016020809104026020016040519081016040528092919081815260200182805461124190613082565b801561128e5780601f106112635761010080835404028352916020019161128e565b820191906000526020600020905b81548152906001019060200180831161127157829003601f168201915b505050505081526020016002820154815250509050806020015181604001519250925050915091565b600160003373ffffffffffffffffffffffffffffffffffffffff1673ffffffffffffffffffffffffffffffffffffffff16815260200190815260200160002060009054906101000a900460ff168061135a575060008054906101000a900473ffffffffffffffffffffffffffffffffffffffff1673ffffffffffffffffffffffffffffffffffffffff163373ffffffffffffffffffffffffffffffffffffffff16145b611399576040517f08c379a000000000000000000000000000000000000000000000000000000000815260040161139090612f0c565b60405180910390fd5b600560008273ffffffffffffffffffffffffffffffffffffffff1673ffffffffffffffffffffffffffffffffffffffff16815260200190815260200160002060000160009054906101000a900460ff1615611429576040517f08c379a0000000000000000000000000000000000000000000000000000000008152600401611420906136e0565b60405180910390fd5b60405180606001604052806001151581526020016000151581526020016000815250600560008373ffffffffffffffffffffffffffffffffffffffff1673ffffffffffffffffffffffffffffffffffffffff16815260200190815260200160002060008201518160000160006101000a81548160ff02191690831515021790555060208201518160000160016101000a81548160ff021916908315150217905550604082015181600101559050507fb6be2187d059cc2a55fe29e0e503b566e1e0f8c8780096e185429350acffd3dd816040516115069190612b18565b60405180910390a150565b60016020528060005260406000206000915054906101000a900460ff1681565b600160003373ffffffffffffffffffffffffffffffffffffffff1673ffffffffffffffffffffffffffffffffffffffff16815260200190815260200160002060009054906101000a900460ff16806115d4575060008054906101000a900473ffffffffffffffffffffffffffffffffffffffff1673ffffffffffffffffffffffffffffffffffffffff163373ffffffffffffffffffffffffffffffffffffffff16145b611613576040517f08c379a000000000000000000000000000000000000000000000000000000000815260040161160a90612f0c565b60405180910390fd5b600860009054906101000a900460ff1615611663576040517f08c379a000000000000000000000000000000000000000000000000000000000815260040161165a90613772565b60405180910390fd5b6007600081548092919061167690612e29565b91905055506040518060600160405280600754815260200183838080601f016020809104026020016040519081016040528093929190818152602001838380828437600081840152601f19601f82011690508083019250505050505050815260200160008152506006600060075481526020019081526020016000206000820151816000015560208201518160010190816117119190613792565b50604082015181600201559050507ff29562dad1599aea0ebb142466120aab326d5efa8f839df82a9c064bf78e893882826040516117509291906138a0565b60405180910390a15050565b600160003373ffffffffffffffffffffffffffffffffffffffff1673ffffffffffffffffffffffffffffffffffffffff16815260200190815260200160002060009054906101000a900460ff16806117ff575060008054906101000a900473ffffffffffffffffffffffffffffffffffffffff1673ffffffffffffffffffffffffffffffffffffffff163373ffffffffffffffffffffffffffffffffffffffff16145b61183e576040517f08c379a000000000000000000000000000000000000000000000000000000000815260040161183590612f0c565b60405180910390fd5b600860009054906101000a900460ff161561188e576040517f08c379a000000000000000000000000000000000000000000000000000000000815260040161188590613936565b60405180910390fd5b600081116118d1576040517f08c379a00000000000000000000000000000000000000000000000000000000081526004016118c8906139a2565b60405180910390fd5b603c816118de91906139c2565b6003819055507f7b618bdde7807a5fed51719c1d5af2441afd29bee82e35b7c4f2e95b0cac9bca600354604051611915919061287d565b60405180910390a150565b600160003373ffffffffffffffffffffffffffffffffffffffff1673ffffffffffffffffffffffffffffffffffffffff16815260200190815260200160002060009054906101000a900460ff16806119c3575060008054906101000a900473ffffffffffffffffffffffffffffffffffffffff1673ffffffffffffffffffffffffffffffffffffffff163373ffffffffffffffffffffffffffffffffffffffff16145b611a02576040517f08c379a00000000000000000000000000000000000000000000000000000000081526004016119f990612f0c565b60405180910390fd5b600160008273ffffffffffffffffffffffffffffffffffffffff1673ffffffffffffffffffffffffffffffffffffffff16815260200190815260200160002060009054906101000a900460ff1615611a8f576040517f08c379a0000000000000000000000000000000000000000000000000000000008152600401611a8690613a50565b60405180910390fd5b60018060008373ffffffffffffffffffffffffffffffffffffffff1673ffffffffffffffffffffffffffffffffffffffff16815260200190815260200160002060006101000a81548160ff0219169083151502179055506002819080600181540180825580915050600190039060005260206000200160009091909190916101000a81548173ffffffffffffffffffffffffffffffffffffffff021916908373ffffffffffffffffffffffffffffffffffffffff1602179055507f44d6d25963f097ad14f29f06854a01f575648a1ef82f30e562ccd3889717e33981604051611b789190612b18565b60405180910390a150565b600860009054906101000a900460ff1681565b600160003373ffffffffffffffffffffffffffffffffffffffff1673ffffffffffffffffffffffffffffffffffffffff16815260200190815260200160002060009054906101000a900460ff1680611c39575060008054906101000a900473ffffffffffffffffffffffffffffffffffffffff1673ffffffffffffffffffffffffffffffffffffffff163373ffffffffffffffffffffffffffffffffffffffff16145b611c78576040517f08c379a0000000000000000000000000000000000000000000000000000000008152600401611c6f90612f0c565b60405180910390fd5b6000600860006101000a81548160ff0219169083151502179055506000600860016101000a81548160ff02191690831515021790555060006004819055506000600190505b6007548111611cf557600060066000838152602001908152602001600020600201819055508080611ced90612e29565b915050611cbd565b50600560003373ffffffffffffffffffffffffffffffffffffffff1673ffffffffffffffffffffffffffffffffffffffff16815260200190815260200160002060000160019054906101000a900460ff1615611e26576000600560003373ffffffffffffffffffffffffffffffffffffffff1673ffffffffffffffffffffffffffffffffffffffff16815260200190815260200160002060000160016101000a81548160ff0219169083151502179055506000600560003373ffffffffffffffffffffffffffffffffffffffff1673ffffffffffffffffffffffffffffffffffffffff168152602001908152602001600020600101819055507ff2db1fecc97a022760b3dc1a11e50d6332862fec18841df6ac09d6dcc1d3637633604051611e1d9190612b18565b60405180910390a15b7f7a19ed057db79e3c2fa0b97a54b43bef4fce74b31bb6c01af514b9a18a7f70ab60405160405180910390a1565b60008054906101000a900473ffffffffffffffffffffffffffffffffffffffff1681565b60606000600860019054906101000a900460ff1680611e9957506004544210155b611ed8576040517f08c379a0000000000000000000000000000000000000000000000000000000008152600401611ecf90613abc565b60405180910390fd5b600060606000600190505b6007548111611fd8578260066000838152602001908152602001600020600201541115611fc55760066000828152602001908152602001600020600201549250600660008281526020019081526020016000206001018054611f4490613082565b80601f0160208091040260200160405190810160405280929190818152602001828054611f7090613082565b8015611fbd5780601f10611f9257610100808354040283529160200191611fbd565b820191906000526020600020905b815481529060010190602001808311611fa057829003601f168201915b505050505091505b8080611fd090612e29565b915050611ee3565b5080829350935050509091565b600860019054906101000a900460ff1681565b60056020528060005260406000206000915090508060000160009054906101000a900460ff16908060000160019054906101000a900460ff16908060010154905083565b600160003373ffffffffffffffffffffffffffffffffffffffff1673ffffffffffffffffffffffffffffffffffffffff16815260200190815260200160002060009054906101000a900460ff16806120df575060008054906101000a900473ffffffffffffffffffffffffffffffffffffffff1673ffffffffffffffffffffffffffffffffffffffff163373ffffffffffffffffffffffffffffffffffffffff16145b61211e576040517f08c379a000000000000000000000000000000000000000000000000000000000815260040161211590612f0c565b60405180910390fd5b600560008273ffffffffffffffffffffffffffffffffffffffff1673ffffffffffffffffffffffffffffffffffffffff16815260200190815260200160002060000160019054906101000a900460ff166121ad576040517f08c379a00000000000000000000000000000000000000000000000000000000081526004016121a490613b28565b60405180910390fd5b6000600560008373ffffffffffffffffffffffffffffffffffffffff1673ffffffffffffffffffffffffffffffffffffffff16815260200190815260200160002060000160016101000a81548160ff0219169083151502179055506000600560008373ffffffffffffffffffffffffffffffffffffffff1673ffffffffffffffffffffffffffffffffffffffff168152602001908152602001600020600101819055507ff2db1fecc97a022760b3dc1a11e50d6332862fec18841df6ac09d6dcc1d363768160405161227f9190612b18565b60405180910390a150565b6000600754905090565b600860009054906101000a900460ff166122e3576040517f08c379a00000000000000000000000000000000000000000000000000000000081526004016122da90613b94565b60405180910390fd5b600860019054906101000a900460ff1615612333576040517f08c379a000000000000000000000000000000000000000000000000000000000815260040161232a90613c00565b60405180910390fd5b60008054906101000a900473ffffffffffffffffffffffffffffffffffffffff1673ffffffffffffffffffffffffffffffffffffffff163373ffffffffffffffffffffffffffffffffffffffff1614806123d65750600160003373ffffffffffffffffffffffffffffffffffffffff1673ffffffffffffffffffffffffffffffffffffffff16815260200190815260200160002060009054906101000a900460ff165b806123e357506004544210155b612422576040517f08c379a000000000000000000000000000000000000000000000000000000000815260040161241990613c92565b60405180910390fd5b6001600860016101000a81548160ff0219169083151502179055507f7a19ed057db79e3c2fa0b97a54b43bef4fce74b31bb6c01af514b9a18a7f70ab60405160405180910390a1565b60606000805b60028054905081101561252a576001600060028381548110612496576124956134f6565b5b9060005260206000200160009054906101000a900473ffffffffffffffffffffffffffffffffffffffff1673ffffffffffffffffffffffffffffffffffffffff1673ffffffffffffffffffffffffffffffffffffffff16815260200190815260200160002060009054906101000a900460ff161561251d57818061251990612e29565b9250505b8080600101915050612471565b50600060018261253a9190613660565b67ffffffffffffffff811115612553576125526130c9565b5b6040519080825280602002602001820160405280156125815781602001602082028036833780820191505090505b50905060008054906101000a900473ffffffffffffffffffffffffffffffffffffffff16816000815181106125b9576125b86134f6565b5b602002602001019073ffffffffffffffffffffffffffffffffffffffff16908173ffffffffffffffffffffffffffffffffffffffff168152505060006001905060005b600280549050811015612741576001600060028381548110612621576126206134f6565b5b9060005260206000200160009054906101000a900473ffffffffffffffffffffffffffffffffffffffff1673ffffffffffffffffffffffffffffffffffffffff1673ffffffffffffffffffffffffffffffffffffffff16815260200190815260200160002060009054906101000a900460ff161561273457600281815481106126ad576126ac6134f6565b5b9060005260206000200160009054906101000a900473ffffffffffffffffffffffffffffffffffffffff168383815181106126eb576126ea6134f6565b5b602002602001019073ffffffffffffffffffffffffffffffffffffffff16908173ffffffffffffffffffffffffffffffffffffffff1681525050818061273090612e29565b9250505b80806001019150506125fc565b5081935050505090565b6000600860009054906101000a900460ff1615806127755750600860019054906101000a900460ff165b8061278257506004544210155b1561279057600090506127a1565b4260045461279e9190613525565b90505b90565b5080546127b090613082565b6000825580601f106127c257506127e1565b601f0160209004906000526020600020908101906127e091906127e4565b5b50565b5b808211156127fd5760008160009055506001016127e5565b5090565b600080fd5b600080fd5b6000819050919050565b61281e8161280b565b811461282957600080fd5b50565b60008135905061283b81612815565b92915050565b60006020828403121561285757612856612801565b5b60006128658482850161282c565b91505092915050565b6128778161280b565b82525050565b6000602082019050612892600083018461286e565b92915050565b600073ffffffffffffffffffffffffffffffffffffffff82169050919050565b60006128c382612898565b9050919050565b6128d3816128b8565b81146128de57600080fd5b50565b6000813590506128f0816128ca565b92915050565b60006020828403121561290c5761290b612801565b5b600061291a848285016128e1565b91505092915050565b60008115159050919050565b61293881612923565b82525050565b6000602082019050612953600083018461292f565b92915050565b600081519050919050565b600082825260208201905092915050565b60005b83811015612993578082015181840152602081019050612978565b60008484015250505050565b6000601f19601f8301169050919050565b60006129bb82612959565b6129c58185612964565b93506129d5818560208601612975565b6129de8161299f565b840191505092915050565b60006060820190506129fe600083018661286e565b8181036020830152612a1081856129b0565b9050612a1f604083018461286e565b949350505050565b60006040820190508181036000830152612a4181856129b0565b9050612a50602083018461286e565b9392505050565b600080fd5b600080fd5b600080fd5b60008083601f840112612a7c57612a7b612a57565b5b8235905067ffffffffffffffff811115612a9957612a98612a5c565b5b602083019150836001820283011115612ab557612ab4612a61565b5b9250929050565b60008060208385031215612ad357612ad2612801565b5b600083013567ffffffffffffffff811115612af157612af0612806565b5b612afd85828601612a66565b92509250509250929050565b612b12816128b8565b82525050565b6000602082019050612b2d6000830184612b09565b92915050565b6000606082019050612b48600083018661292f565b612b55602083018561292f565b612b62604083018461286e565b949350505050565b600081519050919050565b600082825260208201905092915050565b6000819050602082019050919050565b612b9f816128b8565b82525050565b6000612bb18383612b96565b60208301905092915050565b6000602082019050919050565b6000612bd582612b6a565b612bdf8185612b75565b9350612bea83612b86565b8060005b83811015612c1b578151612c028882612ba5565b9750612c0d83612bbd565b925050600181019050612bee565b5085935050505092915050565b60006020820190508181036000830152612c428184612bca565b905092915050565b7f566f74696e67206973206e6f7420616374697665000000000000000000000000600082015250565b6000612c80601483612964565b9150612c8b82612c4a565b602082019050919050565b60006020820190508181036000830152612caf81612c73565b9050919050565b7f566f74696e6720706572696f642068617320656e646564000000000000000000600082015250565b6000612cec601783612964565b9150612cf782612cb6565b602082019050919050565b60006020820190508181036000830152612d1b81612cdf565b9050919050565b7f596f75206861766520616c726561647920766f74656400000000000000000000600082015250565b6000612d58601683612964565b9150612d6382612d22565b602082019050919050565b60006020820190508181036000830152612d8781612d4b565b9050919050565b7f496e76616c69642063616e646964617465000000000000000000000000000000600082015250565b6000612dc4601183612964565b9150612dcf82612d8e565b602082019050919050565b60006020820190508181036000830152612df381612db7565b9050919050565b7f4e487b7100000000000000000000000000000000000000000000000000000000600052601160045260246000fd5b6000612e348261280b565b91507fffffffffffffffffffffffffffffffffffffffffffffffffffffffffffffffff8203612e6657612e65612dfa565b5b600182019050919050565b6000604082019050612e866000830185612b09565b612e93602083018461286e565b9392505050565b7f4f6e6c792061646d696e2063616e2063616c6c20746869732066756e6374696f60008201527f6e00000000000000000000000000000000000000000000000000000000000000602082015250565b6000612ef6602183612964565b9150612f0182612e9a565b604082019050919050565b60006020820190508181036000830152612f2581612ee9565b9050919050565b7f43616e6e6f742072656d6f76652063616e64696461746520616674657220766f60008201527f74696e6720686173207374617274656400000000000000000000000000000000602082015250565b6000612f88603083612964565b9150612f9382612f2c565b604082019050919050565b60006020820190508181036000830152612fb781612f7b565b9050919050565b7f496e76616c69642063616e646964617465204944000000000000000000000000600082015250565b6000612ff4601483612964565b9150612fff82612fbe565b602082019050919050565b6000602082019050818103600083015261302381612fe7565b9050919050565b60006130358261280b565b91506000820361304857613047612dfa565b5b600182039050919050565b7f4e487b7100000000000000000000000000000000000000000000000000000000600052602260045260246000fd5b6000600282049050600182168061309a57607f821691505b6020821081036130ad576130ac613053565b5b50919050565b6000815490506130c281613082565b9050919050565b7f4e487b7100000000000000000000000000000000000000000000000000000000600052604160045260246000fd5b60008190508160005260206000209050919050565b60006020601f8301049050919050565b600082821b905092915050565b60006008830261315a7fffffffffffffffffffffffffffffffffffffffffffffffffffffffffffffffff8261311d565b613164868361311d565b95508019841693508086168417925050509392505050565b6000819050919050565b60006131a161319c6131978461280b565b61317c565b61280b565b9050919050565b6000819050919050565b6131bb83613186565b6131cf6131c7826131a8565b84845461312a565b825550505050565b600090565b6131e46131d7565b6131ef8184846131b2565b505050565b5b81811015613213576132086000826131dc565b6001810190506131f5565b5050565b601f82111561325857613229816130f8565b6132328461310d565b81016020851015613241578190505b61325561324d8561310d565b8301826131f4565b50505b505050565b600082821c905092915050565b600061327b6000198460080261325d565b1980831691505092915050565b6000613294838361326a565b9150826002028217905092915050565b8181036132b257505061338a565b6132bb826130b3565b67ffffffffffffffff8111156132d4576132d36130c9565b5b6132de8254613082565b6132e9828285613217565b6000601f8311600181146133185760008415613306578287015490505b6133108582613288565b865550613383565b601f198416613326876130f8565b9650613331866130f8565b60005b8281101561335957848901548255600182019150600185019450602081019050613334565b868310156133765784890154613372601f89168261326a565b8355505b6001600288020188555050505b5050505050505b565b7f4f6e6c79206f776e65722063616e2063616c6c20746869732066756e6374696f60008201527f6e00000000000000000000000000000000000000000000000000000000000000602082015250565b60006133e8602183612964565b91506133f38261338c565b604082019050919050565b60006020820190508181036000830152613417816133db565b9050919050565b7f43616e6e6f742072656d6f7665206f776e65722066726f6d2061646d696e7300600082015250565b6000613454601f83612964565b915061345f8261341e565b602082019050919050565b6000602082019050818103600083015261348381613447565b9050919050565b7f41646472657373206973206e6f7420616e2061646d696e000000000000000000600082015250565b60006134c0601783612964565b91506134cb8261348a565b602082019050919050565b600060208201905081810360008301526134ef816134b3565b9050919050565b7f4e487b7100000000000000000000000000000000000000000000000000000000600052603260045260246000fd5b60006135308261280b565b915061353b8361280b565b925082820390508181111561355357613552612dfa565b5b92915050565b7f4e487b7100000000000000000000000000000000000000000000000000000000600052603160045260246000fd5b7f566f74696e672068617320616c72656164792073746172746564000000000000600082015250565b60006135be601a83612964565b91506135c982613588565b602082019050919050565b600060208201905081810360008301526135ed816135b1565b9050919050565b7f4e6f2063616e6469646174657320726567697374657265640000000000000000600082015250565b600061362a601883612964565b9150613635826135f4565b602082019050919050565b600060208201905081810360008301526136598161361d565b9050919050565b600061366b8261280b565b91506136768361280b565b925082820190508082111561368e5761368d612dfa565b5b92915050565b7f566f74657220697320616c726561647920726567697374657265640000000000600082015250565b60006136ca601b83612964565b91506136d582613694565b602082019050919050565b600060208201905081810360008301526136f9816136bd565b9050919050565b7f43616e6e6f74206164642063616e64696461746520616674657220766f74696e60008201527f6720686173207374617274656400000000000000000000000000000000000000602082015250565b600061375c602d83612964565b915061376782613700565b604082019050919050565b6000602082019050818103600083015261378b8161374f565b9050919050565b61379b82612959565b67ffffffffffffffff8111156137b4576137b36130c9565b5b6137be8254613082565b6137c9828285613217565b600060209050601f8311600181146137fc57600084156137ea578287015190505b6137f48582613288565b86555061385c565b601f19841661380a866130f8565b60005b828110156138325784890151825560018201915060208501945060208101905061380d565b8683101561384f578489015161384b601f89168261326a565b8355505b6001600288020188555050505b505050505050565b82818337600083830152505050565b600061387f8385612964565b935061388c838584613864565b6138958361299f565b840190509392505050565b600060208201905081810360008301526138bb818486613873565b90509392505050565b7f43616e6e6f74206368616e6765206475726174696f6e207768696c6520766f7460008201527f696e672069732061637469766500000000000000000000000000000000000000602082015250565b6000613920602d83612964565b915061392b826138c4565b604082019050919050565b6000602082019050818103600083015261394f81613913565b9050919050565b7f4475726174696f6e206d7573742062652067726561746572207468616e203000600082015250565b600061398c601f83612964565b915061399782613956565b602082019050919050565b600060208201905081810360008301526139bb8161397f565b9050919050565b60006139cd8261280b565b91506139d88361280b565b92508282026139e68161280b565b915082820484148315176139fd576139fc612dfa565b5b5092915050565b7f4164647265737320697320616c726561647920616e2061646d696e0000000000600082015250565b6000613a3a601b83612964565b9150613a4582613a04565b602082019050919050565b60006020820190508181036000830152613a6981613a2d565b9050919050565b7f566f74696e6720686173206e6f7420656e646564207965740000000000000000600082015250565b6000613aa6601883612964565b9150613ab182613a70565b602082019050919050565b60006020820190508181036000830152613ad581613a99565b9050919050565b7f566f74657220686173206e6f7420766f74656420796574000000000000000000600082015250565b6000613b12601783612964565b9150613b1d82613adc565b602082019050919050565b60006020820190508181036000830152613b4181613b05565b9050919050565b7f566f74696e6720686173206e6f74207374617274656420796574000000000000600082015250565b6000613b7e601a83612964565b9150613b8982613b48565b602082019050919050565b60006020820190508181036000830152613bad81613b71565b9050919050565b7f566f74696e672068617320616c726561647920656e6465640000000000000000600082015250565b6000613bea601883612964565b9150613bf582613bb4565b602082019050919050565b60006020820190508181036000830152613c1981613bdd565b9050919050565b7f4f6e6c792061646d696e2063616e20656e6420766f74696e67206265666f726560008201527f2074696d65206c696d6974000000000000000000000000000000000000000000602082015250565b6000613c7c602b83612964565b9150613c8782613c20565b604082019050919050565b60006020820190508181036000830152613cab81613c6f565b905091905056fea26469706673582212204e71c499d4fe4fa7f1b89dd764d62799cba299f99bb82d0f2dcdb41e18076e6d64736f6c634300081c0033",
  "linkReferences": {},
  "deployedLinkReferences": {}
}