{
  "_format": "hh-sol-artifact-1",
  "contractName": "MyContract",
  "sourceName": "contracts/MyContract.sol",
  "abi": [
    {
      "inputs": [],
      "stateMutability": "nonpayable",
      "type": "constructor"
    },
    {
      "anonymous": false,
      "inputs": [
        {
          "indexed": false,
          "internalType": "address",
          "name": "admin",
          "type": "address"
        }
      ],
      "name": "AdminAdded",
      "type": "event"
    },
    {
      "anonymous": false,
      "inputs": [
        {
          "indexed": false,
          "internalType": "address",
          "name": "admin",
          "type": "address"
        }
      ],
      "name": "AdminRemoved",
      "type": "event"
    },
    {
      "anonymous": false,
      "inputs": [
        {
          "indexed": false,
          "internalType": "string",
          "name": "name",
          "type": "string"
        }
      ],
      "name": "CandidateAdded",
      "type": "event"
    },
    {
      "anonymous": false,
      "inputs": [
        {
          "indexed": false,
          "internalType": "address",
          "name": "voter",
          "type": "address"
        },
        {
          "indexed": false,
          "internalType": "uint256",
          "name": "candidateId",
          "type": "uint256"
        }
      ],
      "name": "Voted",
      "type": "event"
    },
    {
      "anonymous": false,
      "inputs": [
        {
          "indexed": false,
          "internalType": "address",
          "name": "voter",
          "type": "address"
        }
      ],
      "name": "VoterRegistered",
      "type": "event"
    },
    {
      "anonymous": false,
      "inputs": [
        {
          "indexed": false,
          "internalType": "address",
          "name": "voter",
          "type": "address"
        }
      ],
      "name": "VoterReset",
      "type": "event"
    },
    {
      "anonymous": false,
      "inputs": [
        {
          "indexed": false,
          "internalType": "uint256",
          "name": "newDuration",
          "type": "uint256"
        }
      ],
      "name": "VotingDurationChanged",
      "type": "event"
    },
    {
      "anonymous": false,
      "inputs": [],
      "name": "VotingEnded",
      "type": "event"
    },
    {
      "anonymous": false,
      "inputs": [
        {
          "indexed": false,
          "internalType": "uint256",
          "name": "endTime",
          "type": "uint256"
        }
      ],
      "name": "VotingStarted",
      "type": "event"
    },
    {
      "inputs": [
        {
          "internalType": "address",
          "name": "_admin",
          "type": "address"
        }
      ],
      "name": "addAdmin",
      "outputs": [],
      "stateMutability": "nonpayable",
      "type": "function"
    },
    {
      "inputs": [
        {
          "internalType": "string",
          "name": "name",
          "type": "string"
        }
      ],
      "name": "addCandidate",
      "outputs": [],
      "stateMutability": "nonpayable",
      "type": "function"
    },
    {
      "inputs": [
        {
          "internalType": "address",
          "name": "",
          "type": "address"
        }
      ],
      "name": "admins",
      "outputs": [
        {
          "internalType": "bool",
          "name": "",
          "type": "bool"
        }
      ],
      "stateMutability": "view",
      "type": "function"
    },
    {
      "inputs": [
        {
          "internalType": "uint256",
          "name": "",
          "type": "uint256"
        }
      ],
      "name": "candidates",
      "outputs": [
        {
          "internalType": "uint256",
          "name": "id",
          "type": "uint256"
        },
        {
          "internalType": "string",
          "name": "name",
          "type": "string"
        },
        {
          "internalType": "uint256",
          "name": "voteCount",
          "type": "uint256"
        }
      ],
      "stateMutability": "view",
      "type": "function"
    },
    {
      "inputs": [],
      "name": "candidatesCount",
      "outputs": [
        {
          "internalType": "uint256",
          "name": "",
          "type": "uint256"
        }
      ],
      "stateMutability": "view",
      "type": "function"
    },
    {
      "inputs": [],
      "name": "endVoting",
      "outputs": [],
      "stateMutability": "nonpayable",
      "type": "function"
    },
    {
      "inputs": [],
      "name": "getAllAdmins",
      "outputs": [
        {
          "internalType": "address[]",
          "name": "",
          "type": "address[]"
        }
      ],
      "stateMutability": "view",
      "type": "function"
    },
    {
      "inputs": [
        {
          "internalType": "uint256",
          "name": "candidateId",
          "type": "uint256"
        }
      ],
      "name": "getCandidate",
      "outputs": [
        {
          "internalType": "string",
          "name": "",
          "type": "string"
        },
        {
          "internalType": "uint256",
          "name": "",
          "type": "uint256"
        }
      ],
      "stateMutability": "view",
      "type": "function"
    },
    {
      "inputs": [],
      "name": "getCandidatesCount",
      "outputs": [
        {
          "internalType": "uint256",
          "name": "",
          "type": "uint256"
        }
      ],
      "stateMutability": "view",
      "type": "function"
    },
    {
      "inputs": [],
      "name": "getRemainingTime",
      "outputs": [
        {
          "internalType": "uint256",
          "name": "",
          "type": "uint256"
        }
      ],
      "stateMutability": "view",
      "type": "function"
    },
    {
      "inputs": [],
      "name": "getWinner",
      "outputs": [
        {
          "internalType": "string",
          "name": "winnerName",
          "type": "string"
        },
        {
          "internalType": "uint256",
          "name": "winnerVoteCount",
          "type": "uint256"
        }
      ],
      "stateMutability": "view",
      "type": "function"
    },
    {
      "inputs": [
        {
          "internalType": "address",
          "name": "_address",
          "type": "address"
        }
      ],
      "name": "isAdmin",
      "outputs": [
        {
          "internalType": "bool",
          "name": "",
          "type": "bool"
        }
      ],
      "stateMutability": "view",
      "type": "function"
    },
    {
      "inputs": [],
      "name": "owner",
      "outputs": [
        {
          "internalType": "address",
          "name": "",
          "type": "address"
        }
      ],
      "stateMutability": "view",
      "type": "function"
    },
    {
      "inputs": [
        {
          "internalType": "address",
          "name": "_voter",
          "type": "address"
        }
      ],
      "name": "registerVoter",
      "outputs": [],
      "stateMutability": "nonpayable",
      "type": "function"
    },
    {
      "inputs": [
        {
          "internalType": "address",
          "name": "_admin",
          "type": "address"
        }
      ],
      "name": "removeAdmin",
      "outputs": [],
      "stateMutability": "nonpayable",
      "type": "function"
    },
    {
      "inputs": [
        {
          "internalType": "address",
          "name": "voterAddress",
          "type": "address"
        }
      ],
      "name": "resetVoter",
      "outputs": [],
      "stateMutability": "nonpayable",
      "type": "function"
    },
    {
      "inputs": [],
      "name": "resetVotingState",
      "outputs": [],
      "stateMutability": "nonpayable",
      "type": "function"
    },
    {
      "inputs": [
        {
          "internalType": "uint256",
          "name": "durationInMinutes",
          "type": "uint256"
        }
      ],
      "name": "setVotingDuration",
      "outputs": [],
      "stateMutability": "nonpayable",
      "type": "function"
    },
    {
      "inputs": [],
      "name": "startVoting",
      "outputs": [],
      "stateMutability": "nonpayable",
      "type": "function"
    },
    {
      "inputs": [
        {
          "internalType": "uint256",
          "name": "candidateId",
          "type": "uint256"
        }
      ],
      "name": "vote",
      "outputs": [],
      "stateMutability": "nonpayable",
      "type": "function"
    },
    {
      "inputs": [
        {
          "internalType": "address",
          "name": "",
          "type": "address"
        }
      ],
      "name": "voters",
      "outputs": [
        {
          "internalType": "bool",
          "name": "isRegistered",
          "type": "bool"
        },
        {
          "internalType": "bool",
          "name": "hasVoted",
          "type": "bool"
        },
        {
          "internalType": "uint256",
          "name": "votedFor",
          "type": "uint256"
        }
      ],
      "stateMutability": "view",
      "type": "function"
    },
    {
      "inputs": [],
      "name": "votingDuration",
      "outputs": [
        {
          "internalType": "uint256",
          "name": "",
          "type": "uint256"
        }
      ],
      "stateMutability": "view",
      "type": "function"
    },
    {
      "inputs": [],
      "name": "votingEndTime",
      "outputs": [
        {
          "internalType": "uint256",
          "name": "",
          "type": "uint256"
        }
      ],
      "stateMutability": "view",
      "type": "function"
    },
    {
      "inputs": [],
      "name": "votingEnded",
      "outputs": [
        {
          "internalType": "bool",
          "name": "",
          "type": "bool"
        }
      ],
      "stateMutability": "view",
      "type": "function"
    },
    {
      "inputs": [],
      "name": "votingStarted",
      "outputs": [
        {
          "internalType": "bool",
          "name": "",
          "type": "bool"
        }
      ],
      "stateMutability": "view",
      "type": "function"
    }
  ],
  "bytecode": "0x6080604052610e1060035534801561001657600080fd5b50336000806101000a81548173ffffffffffffffffffffffffffffffffffffffff021916908373ffffffffffffffffffffffffffffffffffffffff16021790555060018060003373ffffffffffffffffffffffffffffffffffffffff1673ffffffffffffffffffffffffffffffffffffffff16815260200190815260200160002060006101000a81548160ff0219169083151502179055507f44d6d25963f097ad14f29f06854a01f575648a1ef82f30e562ccd3889717e339336040516100dd919061012b565b60405180910390a1610146565b600073ffffffffffffffffffffffffffffffffffffffff82169050919050565b6000610115826100ea565b9050919050565b6101258161010a565b82525050565b6000602082019050610140600083018461011c565b92915050565b61378b806101556000396000f3fe608060405234801561001057600080fd5b50600436106101735760003560e01c80635bcfadb5116100de5780639d5a052911610097578063bb9aa28f11610071578063bb9aa28f14610418578063c3403ddf14610436578063e9523c9714610440578063efb98bcf1461045e57610173565b80639d5a0529146103ac578063a3ec138d146103ca578063ba05269b146103fc57610173565b80635bcfadb51461030f578063704802751461032b57806383d948b7146103475780638b5df08d146103655780638da5cb5b1461036f5780638e7ea5b21461038d57610173565b80632d35a8a2116101305780632d35a8a2146102265780633477ee2e1461024457806335b8e8201461027657806338db6dd3146102a7578063429b62e5146102c3578063462e91ec146102f357610173565b80630121b93f14610178578063132002fc146101945780631785f53c146101b25780631ea736e0146101ce5780631ec6b60a146101ec57806324d7806c146101f6575b600080fd5b610192600480360381019061018d919061249d565b61047c565b005b61019c610713565b6040516101a991906124d9565b60405180910390f35b6101cc60048036038101906101c79190612552565b610719565b005b6101d6610ada565b6040516101e391906124d9565b60405180910390f35b6101f4610ae0565b005b610210600480360381019061020b9190612552565b610cdc565b60405161021d919061259a565b60405180910390f35b61022e610d88565b60405161023b91906124d9565b60405180910390f35b61025e6004803603810190610259919061249d565b610d8e565b60405161026d93929190612645565b60405180910390f35b610290600480360381019061028b919061249d565b610e40565b60405161029e929190612683565b60405180910390f35b6102c160048036038101906102bc9190612552565b610f70565b005b6102dd60048036038101906102d89190612552565b6111ca565b6040516102ea919061259a565b60405180910390f35b61030d60048036038101906103089190612718565b6111ea565b005b6103296004803603810190610324919061249d565b611415565b005b61034560048036038101906103409190612552565b6115d9565b005b61034f61183c565b60405161035c919061259a565b60405180910390f35b61036d61184f565b005b610377611b0d565b6040516103849190612774565b60405180910390f35b610395611b31565b6040516103a3929190612683565b60405180910390f35b6103b4611c9e565b6040516103c1919061259a565b60405180910390f35b6103e460048036038101906103df9190612552565b611cb1565b6040516103f39392919061278f565b60405180910390f35b61041660048036038101906104119190612552565b611cf5565b005b610420611f43565b60405161042d91906124d9565b60405180910390f35b61043e611f4d565b005b610448612124565b6040516104559190612884565b60405180910390f35b610466612404565b60405161047391906124d9565b60405180910390f35b600860009054906101000a900460ff1680156104a55750600860019054906101000a900460ff16155b6104e4576040517f08c379a00000000000000000000000000000000000000000000000000000000081526004016104db906128f2565b60405180910390fd5b6004544210610528576040517f08c379a000000000000000000000000000000000000000000000000000000000815260040161051f9061295e565b60405180910390fd5b600560003373ffffffffffffffffffffffffffffffffffffffff1673ffffffffffffffffffffffffffffffffffffffff16815260200190815260200160002060000160019054906101000a900460ff16156105b8576040517f08c379a00000000000000000000000000000000000000000000000000000000081526004016105af906129ca565b60405180910390fd5b6000811180156105ca57506007548111155b610609576040517f08c379a000000000000000000000000000000000000000000000000000000000815260040161060090612a36565b60405180910390fd5b6001600560003373ffffffffffffffffffffffffffffffffffffffff1673ffffffffffffffffffffffffffffffffffffffff16815260200190815260200160002060000160016101000a81548160ff02191690831515021790555080600560003373ffffffffffffffffffffffffffffffffffffffff1673ffffffffffffffffffffffffffffffffffffffff168152602001908152602001600020600101819055506006600082815260200190815260200160002060020160008154809291906106d290612a85565b91905055507f4d99b957a2bc29a30ebd96a7be8e68fe50a3c701db28a91436490b7d53870ca43382604051610708929190612acd565b60405180910390a150565b60035481565b60008054906101000a900473ffffffffffffffffffffffffffffffffffffffff1673ffffffffffffffffffffffffffffffffffffffff163373ffffffffffffffffffffffffffffffffffffffff16146107a7576040517f08c379a000000000000000000000000000000000000000000000000000000000815260040161079e90612b68565b60405180910390fd5b60008054906101000a900473ffffffffffffffffffffffffffffffffffffffff1673ffffffffffffffffffffffffffffffffffffffff168173ffffffffffffffffffffffffffffffffffffffff1603610835576040517f08c379a000000000000000000000000000000000000000000000000000000000815260040161082c90612bd4565b60405180910390fd5b600160008273ffffffffffffffffffffffffffffffffffffffff1673ffffffffffffffffffffffffffffffffffffffff16815260200190815260200160002060009054906101000a900460ff166108c1576040517f08c379a00000000000000000000000000000000000000000000000000000000081526004016108b890612c40565b60405180910390fd5b6000600160008373ffffffffffffffffffffffffffffffffffffffff1673ffffffffffffffffffffffffffffffffffffffff16815260200190815260200160002060006101000a81548160ff02191690831515021790555060005b600280549050811015610a9f578173ffffffffffffffffffffffffffffffffffffffff166002828154811061095457610953612c60565b5b9060005260206000200160009054906101000a900473ffffffffffffffffffffffffffffffffffffffff1673ffffffffffffffffffffffffffffffffffffffff1603610a9257600260016002805490506109ae9190612c8f565b815481106109bf576109be612c60565b5b9060005260206000200160009054906101000a900473ffffffffffffffffffffffffffffffffffffffff16600282815481106109fe576109fd612c60565b5b9060005260206000200160006101000a81548173ffffffffffffffffffffffffffffffffffffffff021916908373ffffffffffffffffffffffffffffffffffffffff1602179055506002805480610a5857610a57612cc3565b5b6001900381819060005260206000200160006101000a81549073ffffffffffffffffffffffffffffffffffffffff02191690559055610a9f565b808060010191505061091c565b507fa3b62bc36326052d97ea62d63c3d60308ed4c3ea8ac079dd8499f1e9c4f80c0f81604051610acf9190612774565b60405180910390a150565b60045481565b600160003373ffffffffffffffffffffffffffffffffffffffff1673ffffffffffffffffffffffffffffffffffffffff16815260200190815260200160002060009054906101000a900460ff1680610b83575060008054906101000a900473ffffffffffffffffffffffffffffffffffffffff1673ffffffffffffffffffffffffffffffffffffffff163373ffffffffffffffffffffffffffffffffffffffff16145b610bc2576040517f08c379a0000000000000000000000000000000000000000000000000000000008152600401610bb990612d64565b60405180910390fd5b600860009054906101000a900460ff1615610c12576040517f08c379a0000000000000000000000000000000000000000000000000000000008152600401610c0990612dd0565b60405180910390fd5b600060075411610c57576040517f08c379a0000000000000000000000000000000000000000000000000000000008152600401610c4e90612e3c565b60405180910390fd5b6001600860006101000a81548160ff0219169083151502179055506000600860016101000a81548160ff02191690831515021790555060035442610c9b9190612e5c565b6004819055507fcf33babc496bb6dc2942b39cb7b75766bbbadf7da50d176ff8c513e991140239600454604051610cd291906124d9565b60405180910390a1565b6000600160008373ffffffffffffffffffffffffffffffffffffffff1673ffffffffffffffffffffffffffffffffffffffff16815260200190815260200160002060009054906101000a900460ff1680610d81575060008054906101000a900473ffffffffffffffffffffffffffffffffffffffff1673ffffffffffffffffffffffffffffffffffffffff168273ffffffffffffffffffffffffffffffffffffffff16145b9050919050565b60075481565b6006602052806000526040600020600091509050806000015490806001018054610db790612ebf565b80601f0160208091040260200160405190810160405280929190818152602001828054610de390612ebf565b8015610e305780601f10610e0557610100808354040283529160200191610e30565b820191906000526020600020905b815481529060010190602001808311610e1357829003601f168201915b5050505050908060020154905083565b606060008083118015610e5557506007548311155b610e94576040517f08c379a0000000000000000000000000000000000000000000000000000000008152600401610e8b90612f3c565b60405180910390fd5b60006006600085815260200190815260200160002060405180606001604052908160008201548152602001600182018054610ece90612ebf565b80601f0160208091040260200160405190810160405280929190818152602001828054610efa90612ebf565b8015610f475780601f10610f1c57610100808354040283529160200191610f47565b820191906000526020600020905b815481529060010190602001808311610f2a57829003601f168201915b505050505081526020016002820154815250509050806020015181604001519250925050915091565b600160003373ffffffffffffffffffffffffffffffffffffffff1673ffffffffffffffffffffffffffffffffffffffff16815260200190815260200160002060009054906101000a900460ff1680611013575060008054906101000a900473ffffffffffffffffffffffffffffffffffffffff1673ffffffffffffffffffffffffffffffffffffffff163373ffffffffffffffffffffffffffffffffffffffff16145b611052576040517f08c379a000000000000000000000000000000000000000000000000000000000815260040161104990612d64565b60405180910390fd5b600560008273ffffffffffffffffffffffffffffffffffffffff1673ffffffffffffffffffffffffffffffffffffffff16815260200190815260200160002060000160009054906101000a900460ff16156110e2576040517f08c379a00000000000000000000000000000000000000000000000000000000081526004016110d990612fa8565b60405180910390fd5b60405180606001604052806001151581526020016000151581526020016000815250600560008373ffffffffffffffffffffffffffffffffffffffff1673ffffffffffffffffffffffffffffffffffffffff16815260200190815260200160002060008201518160000160006101000a81548160ff02191690831515021790555060208201518160000160016101000a81548160ff021916908315150217905550604082015181600101559050507fb6be2187d059cc2a55fe29e0e503b566e1e0f8c8780096e185429350acffd3dd816040516111bf9190612774565b60405180910390a150565b60016020528060005260406000206000915054906101000a900460ff1681565b600160003373ffffffffffffffffffffffffffffffffffffffff1673ffffffffffffffffffffffffffffffffffffffff16815260200190815260200160002060009054906101000a900460ff168061128d575060008054906101000a900473ffffffffffffffffffffffffffffffffffffffff1673ffffffffffffffffffffffffffffffffffffffff163373ffffffffffffffffffffffffffffffffffffffff16145b6112cc576040517f08c379a00000000000000000000000000000000000000000000000000000000081526004016112c390612d64565b60405180910390fd5b600860009054906101000a900460ff161561131c576040517f08c379a00000000000000000000000000000000000000000000000000000000081526004016113139061303a565b60405180910390fd5b6007600081548092919061132f90612a85565b91905055506040518060600160405280600754815260200183838080601f016020809104026020016040519081016040528093929190818152602001838380828437600081840152601f19601f82011690508083019250505050505050815260200160008152506006600060075481526020019081526020016000206000820151816000015560208201518160010190816113ca9190613235565b50604082015181600201559050507ff29562dad1599aea0ebb142466120aab326d5efa8f839df82a9c064bf78e89388282604051611409929190613343565b60405180910390a15050565b600160003373ffffffffffffffffffffffffffffffffffffffff1673ffffffffffffffffffffffffffffffffffffffff16815260200190815260200160002060009054906101000a900460ff16806114b8575060008054906101000a900473ffffffffffffffffffffffffffffffffffffffff1673ffffffffffffffffffffffffffffffffffffffff163373ffffffffffffffffffffffffffffffffffffffff16145b6114f7576040517f08c379a00000000000000000000000000000000000000000000000000000000081526004016114ee90612d64565b60405180910390fd5b600860009054906101000a900460ff1615611547576040517f08c379a000000000000000000000000000000000000000000000000000000000815260040161153e906133d9565b60405180910390fd5b6000811161158a576040517f08c379a000000000000000000000000000000000000000000000000000000000815260040161158190613445565b60405180910390fd5b603c816115979190613465565b6003819055507f7b618bdde7807a5fed51719c1d5af2441afd29bee82e35b7c4f2e95b0cac9bca6003546040516115ce91906124d9565b60405180910390a150565b600160003373ffffffffffffffffffffffffffffffffffffffff1673ffffffffffffffffffffffffffffffffffffffff16815260200190815260200160002060009054906101000a900460ff168061167c575060008054906101000a900473ffffffffffffffffffffffffffffffffffffffff1673ffffffffffffffffffffffffffffffffffffffff163373ffffffffffffffffffffffffffffffffffffffff16145b6116bb576040517f08c379a00000000000000000000000000000000000000000000000000000000081526004016116b290612d64565b60405180910390fd5b600160008273ffffffffffffffffffffffffffffffffffffffff1673ffffffffffffffffffffffffffffffffffffffff16815260200190815260200160002060009054906101000a900460ff1615611748576040517f08c379a000000000000000000000000000000000000000000000000000000000815260040161173f906134f3565b60405180910390fd5b60018060008373ffffffffffffffffffffffffffffffffffffffff1673ffffffffffffffffffffffffffffffffffffffff16815260200190815260200160002060006101000a81548160ff0219169083151502179055506002819080600181540180825580915050600190039060005260206000200160009091909190916101000a81548173ffffffffffffffffffffffffffffffffffffffff021916908373ffffffffffffffffffffffffffffffffffffffff1602179055507f44d6d25963f097ad14f29f06854a01f575648a1ef82f30e562ccd3889717e339816040516118319190612774565b60405180910390a150565b600860009054906101000a900460ff1681565b600160003373ffffffffffffffffffffffffffffffffffffffff1673ffffffffffffffffffffffffffffffffffffffff16815260200190815260200160002060009054906101000a900460ff16806118f2575060008054906101000a900473ffffffffffffffffffffffffffffffffffffffff1673ffffffffffffffffffffffffffffffffffffffff163373ffffffffffffffffffffffffffffffffffffffff16145b611931576040517f08c379a000000000000000000000000000000000000000000000000000000000815260040161192890612d64565b60405180910390fd5b6000600860006101000a81548160ff0219169083151502179055506000600860016101000a81548160ff02191690831515021790555060006004819055506000600190505b60075481116119ae576000600660008381526020019081526020016000206002018190555080806119a690612a85565b915050611976565b50600560003373ffffffffffffffffffffffffffffffffffffffff1673ffffffffffffffffffffffffffffffffffffffff16815260200190815260200160002060000160019054906101000a900460ff1615611adf576000600560003373ffffffffffffffffffffffffffffffffffffffff1673ffffffffffffffffffffffffffffffffffffffff16815260200190815260200160002060000160016101000a81548160ff0219169083151502179055506000600560003373ffffffffffffffffffffffffffffffffffffffff1673ffffffffffffffffffffffffffffffffffffffff168152602001908152602001600020600101819055507ff2db1fecc97a022760b3dc1a11e50d6332862fec18841df6ac09d6dcc1d3637633604051611ad69190612774565b60405180910390a15b7f7a19ed057db79e3c2fa0b97a54b43bef4fce74b31bb6c01af514b9a18a7f70ab60405160405180910390a1565b60008054906101000a900473ffffffffffffffffffffffffffffffffffffffff1681565b60606000600860019054906101000a900460ff1680611b5257506004544210155b611b91576040517f08c379a0000000000000000000000000000000000000000000000000000000008152600401611b889061355f565b60405180910390fd5b600060606000600190505b6007548111611c91578260066000838152602001908152602001600020600201541115611c7e5760066000828152602001908152602001600020600201549250600660008281526020019081526020016000206001018054611bfd90612ebf565b80601f0160208091040260200160405190810160405280929190818152602001828054611c2990612ebf565b8015611c765780601f10611c4b57610100808354040283529160200191611c76565b820191906000526020600020905b815481529060010190602001808311611c5957829003601f168201915b505050505091505b8080611c8990612a85565b915050611b9c565b5080829350935050509091565b600860019054906101000a900460ff1681565b60056020528060005260406000206000915090508060000160009054906101000a900460ff16908060000160019054906101000a900460ff16908060010154905083565b600160003373ffffffffffffffffffffffffffffffffffffffff1673ffffffffffffffffffffffffffffffffffffffff16815260200190815260200160002060009054906101000a900460ff1680611d98575060008054906101000a900473ffffffffffffffffffffffffffffffffffffffff1673ffffffffffffffffffffffffffffffffffffffff163373ffffffffffffffffffffffffffffffffffffffff16145b611dd7576040517f08c379a0000000000000000000000000000000000000000000000000000000008152600401611dce90612d64565b60405180910390fd5b600560008273ffffffffffffffffffffffffffffffffffffffff1673ffffffffffffffffffffffffffffffffffffffff16815260200190815260200160002060000160019054906101000a900460ff16611e66576040517f08c379a0000000000000000000000000000000000000000000000000000000008152600401611e5d906135cb565b60405180910390fd5b6000600560008373ffffffffffffffffffffffffffffffffffffffff1673ffffffffffffffffffffffffffffffffffffffff16815260200190815260200160002060000160016101000a81548160ff0219169083151502179055506000600560008373ffffffffffffffffffffffffffffffffffffffff1673ffffffffffffffffffffffffffffffffffffffff168152602001908152602001600020600101819055507ff2db1fecc97a022760b3dc1a11e50d6332862fec18841df6ac09d6dcc1d3637681604051611f389190612774565b60405180910390a150565b6000600754905090565b600860009054906101000a900460ff16611f9c576040517f08c379a0000000000000000000000000000000000000000000000000000000008152600401611f9390613637565b60405180910390fd5b600860019054906101000a900460ff1615611fec576040517f08c379a0000000000000000000000000000000000000000000000000000000008152600401611fe3906136a3565b60405180910390fd5b60008054906101000a900473ffffffffffffffffffffffffffffffffffffffff1673ffffffffffffffffffffffffffffffffffffffff163373ffffffffffffffffffffffffffffffffffffffff16148061208f5750600160003373ffffffffffffffffffffffffffffffffffffffff1673ffffffffffffffffffffffffffffffffffffffff16815260200190815260200160002060009054906101000a900460ff165b8061209c57506004544210155b6120db576040517f08c379a00000000000000000000000000000000000000000000000000000000081526004016120d290613735565b60405180910390fd5b6001600860016101000a81548160ff0219169083151502179055507f7a19ed057db79e3c2fa0b97a54b43bef4fce74b31bb6c01af514b9a18a7f70ab60405160405180910390a1565b60606000805b6002805490508110156121e357600160006002838154811061214f5761214e612c60565b5b9060005260206000200160009054906101000a900473ffffffffffffffffffffffffffffffffffffffff1673ffffffffffffffffffffffffffffffffffffffff1673ffffffffffffffffffffffffffffffffffffffff16815260200190815260200160002060009054906101000a900460ff16156121d65781806121d290612a85565b9250505b808060010191505061212a565b5060006001826121f39190612e5c565b67ffffffffffffffff81111561220c5761220b61305a565b5b60405190808252806020026020018201604052801561223a5781602001602082028036833780820191505090505b50905060008054906101000a900473ffffffffffffffffffffffffffffffffffffffff168160008151811061227257612271612c60565b5b602002602001019073ffffffffffffffffffffffffffffffffffffffff16908173ffffffffffffffffffffffffffffffffffffffff168152505060006001905060005b6002805490508110156123fa5760016000600283815481106122da576122d9612c60565b5b9060005260206000200160009054906101000a900473ffffffffffffffffffffffffffffffffffffffff1673ffffffffffffffffffffffffffffffffffffffff1673ffffffffffffffffffffffffffffffffffffffff16815260200190815260200160002060009054906101000a900460ff16156123ed576002818154811061236657612365612c60565b5b9060005260206000200160009054906101000a900473ffffffffffffffffffffffffffffffffffffffff168383815181106123a4576123a3612c60565b5b602002602001019073ffffffffffffffffffffffffffffffffffffffff16908173ffffffffffffffffffffffffffffffffffffffff168152505081806123e990612a85565b9250505b80806001019150506122b5565b5081935050505090565b6000600860009054906101000a900460ff16158061242e5750600860019054906101000a900460ff165b8061243b57506004544210155b15612449576000905061245a565b426004546124579190612c8f565b90505b90565b600080fd5b600080fd5b6000819050919050565b61247a81612467565b811461248557600080fd5b50565b60008135905061249781612471565b92915050565b6000602082840312156124b3576124b261245d565b5b60006124c184828501612488565b91505092915050565b6124d381612467565b82525050565b60006020820190506124ee60008301846124ca565b92915050565b600073ffffffffffffffffffffffffffffffffffffffff82169050919050565b600061251f826124f4565b9050919050565b61252f81612514565b811461253a57600080fd5b50565b60008135905061254c81612526565b92915050565b6000602082840312156125685761256761245d565b5b60006125768482850161253d565b91505092915050565b60008115159050919050565b6125948161257f565b82525050565b60006020820190506125af600083018461258b565b92915050565b600081519050919050565b600082825260208201905092915050565b60005b838110156125ef5780820151818401526020810190506125d4565b60008484015250505050565b6000601f19601f8301169050919050565b6000612617826125b5565b61262181856125c0565b93506126318185602086016125d1565b61263a816125fb565b840191505092915050565b600060608201905061265a60008301866124ca565b818103602083015261266c818561260c565b905061267b60408301846124ca565b949350505050565b6000604082019050818103600083015261269d818561260c565b90506126ac60208301846124ca565b9392505050565b600080fd5b600080fd5b600080fd5b60008083601f8401126126d8576126d76126b3565b5b8235905067ffffffffffffffff8111156126f5576126f46126b8565b5b602083019150836001820283011115612711576127106126bd565b5b9250929050565b6000806020838503121561272f5761272e61245d565b5b600083013567ffffffffffffffff81111561274d5761274c612462565b5b612759858286016126c2565b92509250509250929050565b61276e81612514565b82525050565b60006020820190506127896000830184612765565b92915050565b60006060820190506127a4600083018661258b565b6127b1602083018561258b565b6127be60408301846124ca565b949350505050565b600081519050919050565b600082825260208201905092915050565b6000819050602082019050919050565b6127fb81612514565b82525050565b600061280d83836127f2565b60208301905092915050565b6000602082019050919050565b6000612831826127c6565b61283b81856127d1565b9350612846836127e2565b8060005b8381101561287757815161285e8882612801565b975061286983612819565b92505060018101905061284a565b5085935050505092915050565b6000602082019050818103600083015261289e8184612826565b905092915050565b7f566f74696e67206973206e6f7420616374697665000000000000000000000000600082015250565b60006128dc6014836125c0565b91506128e7826128a6565b602082019050919050565b6000602082019050818103600083015261290b816128cf565b9050919050565b7f566f74696e6720706572696f642068617320656e646564000000000000000000600082015250565b60006129486017836125c0565b915061295382612912565b602082019050919050565b600060208201905081810360008301526129778161293b565b9050919050565b7f596f75206861766520616c726561647920766f74656400000000000000000000600082015250565b60006129b46016836125c0565b91506129bf8261297e565b602082019050919050565b600060208201905081810360008301526129e3816129a7565b9050919050565b7f496e76616c69642063616e646964617465000000000000000000000000000000600082015250565b6000612a206011836125c0565b9150612a2b826129ea565b602082019050919050565b60006020820190508181036000830152612a4f81612a13565b9050919050565b7f4e487b7100000000000000000000000000000000000000000000000000000000600052601160045260246000fd5b6000612a9082612467565b91507fffffffffffffffffffffffffffffffffffffffffffffffffffffffffffffffff8203612ac257612ac1612a56565b5b600182019050919050565b6000604082019050612ae26000830185612765565b612aef60208301846124ca565b9392505050565b7f4f6e6c79206f776e65722063616e2063616c6c20746869732066756e6374696f60008201527f6e00000000000000000000000000000000000000000000000000000000000000602082015250565b6000612b526021836125c0565b9150612b5d82612af6565b604082019050919050565b60006020820190508181036000830152612b8181612b45565b9050919050565b7f43616e6e6f742072656d6f7665206f776e65722066726f6d2061646d696e7300600082015250565b6000612bbe601f836125c0565b9150612bc982612b88565b602082019050919050565b60006020820190508181036000830152612bed81612bb1565b9050919050565b7f41646472657373206973206e6f7420616e2061646d696e000000000000000000600082015250565b6000612c2a6017836125c0565b9150612c3582612bf4565b602082019050919050565b60006020820190508181036000830152612c5981612c1d565b9050919050565b7f4e487b7100000000000000000000000000000000000000000000000000000000600052603260045260246000fd5b6000612c9a82612467565b9150612ca583612467565b9250828203905081811115612cbd57612cbc612a56565b5b92915050565b7f4e487b7100000000000000000000000000000000000000000000000000000000600052603160045260246000fd5b7f4f6e6c792061646d696e2063616e2063616c6c20746869732066756e6374696f60008201527f6e00000000000000000000000000000000000000000000000000000000000000602082015250565b6000612d4e6021836125c0565b9150612d5982612cf2565b604082019050919050565b60006020820190508181036000830152612d7d81612d41565b9050919050565b7f566f74696e672068617320616c72656164792073746172746564000000000000600082015250565b6000612dba601a836125c0565b9150612dc582612d84565b602082019050919050565b60006020820190508181036000830152612de981612dad565b9050919050565b7f4e6f2063616e6469646174657320726567697374657265640000000000000000600082015250565b6000612e266018836125c0565b9150612e3182612df0565b602082019050919050565b60006020820190508181036000830152612e5581612e19565b9050919050565b6000612e6782612467565b9150612e7283612467565b9250828201905080821115612e8a57612e89612a56565b5b92915050565b7f4e487b7100000000000000000000000000000000000000000000000000000000600052602260045260246000fd5b60006002820490506001821680612ed757607f821691505b602082108103612eea57612ee9612e90565b5b50919050565b7f496e76616c69642063616e646964617465204944000000000000000000000000600082015250565b6000612f266014836125c0565b9150612f3182612ef0565b602082019050919050565b60006020820190508181036000830152612f5581612f19565b9050919050565b7f566f74657220697320616c726561647920726567697374657265640000000000600082015250565b6000612f92601b836125c0565b9150612f9d82612f5c565b602082019050919050565b60006020820190508181036000830152612fc181612f85565b9050919050565b7f43616e6e6f74206164642063616e64696461746520616674657220766f74696e60008201527f6720686173207374617274656400000000000000000000000000000000000000602082015250565b6000613024602d836125c0565b915061302f82612fc8565b604082019050919050565b6000602082019050818103600083015261305381613017565b9050919050565b7f4e487b7100000000000000000000000000000000000000000000000000000000600052604160045260246000fd5b60008190508160005260206000209050919050565b60006020601f8301049050919050565b600082821b905092915050565b6000600883026130eb7fffffffffffffffffffffffffffffffffffffffffffffffffffffffffffffffff826130ae565b6130f586836130ae565b95508019841693508086168417925050509392505050565b6000819050919050565b600061313261312d61312884612467565b61310d565b612467565b9050919050565b6000819050919050565b61314c83613117565b61316061315882613139565b8484546130bb565b825550505050565b600090565b613175613168565b613180818484613143565b505050565b5b818110156131a45761319960008261316d565b600181019050613186565b5050565b601f8211156131e9576131ba81613089565b6131c38461309e565b810160208510156131d2578190505b6131e66131de8561309e565b830182613185565b50505b505050565b600082821c905092915050565b600061320c600019846008026131ee565b1980831691505092915050565b600061322583836131fb565b9150826002028217905092915050565b61323e826125b5565b67ffffffffffffffff8111156132575761325661305a565b5b6132618254612ebf565b61326c8282856131a8565b600060209050601f83116001811461329f576000841561328d578287015190505b6132978582613219565b8655506132ff565b601f1984166132ad86613089565b60005b828110156132d5578489015182556001820191506020850194506020810190506132b0565b868310156132f257848901516132ee601f8916826131fb565b8355505b6001600288020188555050505b505050505050565b82818337600083830152505050565b600061332283856125c0565b935061332f838584613307565b613338836125fb565b840190509392505050565b6000602082019050818103600083015261335e818486613316565b90509392505050565b7f43616e6e6f74206368616e6765206475726174696f6e207768696c6520766f7460008201527f696e672069732061637469766500000000000000000000000000000000000000602082015250565b60006133c3602d836125c0565b91506133ce82613367565b604082019050919050565b600060208201905081810360008301526133f2816133b6565b9050919050565b7f4475726174696f6e206d7573742062652067726561746572207468616e203000600082015250565b600061342f601f836125c0565b915061343a826133f9565b602082019050919050565b6000602082019050818103600083015261345e81613422565b9050919050565b600061347082612467565b915061347b83612467565b925082820261348981612467565b915082820484148315176134a05761349f612a56565b5b5092915050565b7f4164647265737320697320616c726561647920616e2061646d696e0000000000600082015250565b60006134dd601b836125c0565b91506134e8826134a7565b602082019050919050565b6000602082019050818103600083015261350c816134d0565b9050919050565b7f566f74696e6720686173206e6f7420656e646564207965740000000000000000600082015250565b60006135496018836125c0565b915061355482613513565b602082019050919050565b600060208201905081810360008301526135788161353c565b9050919050565b7f566f74657220686173206e6f7420766f74656420796574000000000000000000600082015250565b60006135b56017836125c0565b91506135c08261357f565b602082019050919050565b600060208201905081810360008301526135e4816135a8565b9050919050565b7f566f74696e6720686173206e6f74207374617274656420796574000000000000600082015250565b6000613621601a836125c0565b915061362c826135eb565b602082019050919050565b6000602082019050818103600083015261365081613614565b9050919050565b7f566f74696e672068617320616c726561647920656e6465640000000000000000600082015250565b600061368d6018836125c0565b915061369882613657565b602082019050919050565b600060208201905081810360008301526136bc81613680565b9050919050565b7f4f6e6c792061646d696e2063616e20656e6420766f74696e67206265666f726560008201527f2074696d65206c696d6974000000000000000000000000000000000000000000602082015250565b600061371f602b836125c0565b915061372a826136c3565b604082019050919050565b6000602082019050818103600083015261374e81613712565b905091905056fea2646970667358221220ef525c8358cb4466b995a5f5947430a2ae669b15d9800106182fa1203776f0c064736f6c634300081c0033",
  "linkReferences": {},
  "deployedLinkReferences": {}
}