{
  "_format": "hh-sol-artifact-1",
  "contractName": "MyContract",
  "sourceName": "contracts/MyContract.sol",
  "abi": [
    {
      "inputs": [],
      "stateMutability": "nonpayable",
      "type": "constructor"
    },
    {
      "anonymous": false,
      "inputs": [
        {
          "indexed": false,
          "internalType": "address",
          "name": "admin",
          "type": "address"
        }
      ],
      "name": "AdminAdded",
      "type": "event"
    },
    {
      "anonymous": false,
      "inputs": [
        {
          "indexed": false,
          "internalType": "address",
          "name": "admin",
          "type": "address"
        }
      ],
      "name": "AdminRemoved",
      "type": "event"
    },
    {
      "anonymous": false,
      "inputs": [
        {
          "indexed": false,
          "internalType": "string",
          "name": "name",
          "type": "string"
        }
      ],
      "name": "CandidateAdded",
      "type": "event"
    },
    {
      "anonymous": false,
      "inputs": [
        {
          "indexed": false,
          "internalType": "uint256",
          "name": "candidateId",
          "type": "uint256"
        }
      ],
      "name": "CandidateRemoved",
      "type": "event"
    },
    {
      "anonymous": false,
      "inputs": [
        {
          "indexed": false,
          "internalType": "address",
          "name": "voter",
          "type": "address"
        },
        {
          "indexed": false,
          "internalType": "uint256",
          "name": "candidateId",
          "type": "uint256"
        }
      ],
      "name": "Voted",
      "type": "event"
    },
    {
      "anonymous": false,
      "inputs": [
        {
          "indexed": false,
          "internalType": "address",
          "name": "voter",
          "type": "address"
        }
      ],
      "name": "VoterRegistered",
      "type": "event"
    },
    {
      "anonymous": false,
      "inputs": [
        {
          "indexed": false,
          "internalType": "address",
          "name": "voter",
          "type": "address"
        }
      ],
      "name": "VoterReset",
      "type": "event"
    },
    {
      "anonymous": false,
      "inputs": [
        {
          "indexed": false,
          "internalType": "uint256",
          "name": "newDuration",
          "type": "uint256"
        }
      ],
      "name": "VotingDurationChanged",
      "type": "event"
    },
    {
      "anonymous": false,
      "inputs": [],
      "name": "VotingEnded",
      "type": "event"
    },
    {
      "anonymous": false,
      "inputs": [
        {
          "indexed": false,
          "internalType": "uint256",
          "name": "endTime",
          "type": "uint256"
        }
      ],
      "name": "VotingStarted",
      "type": "event"
    },
    {
      "inputs": [
        {
          "internalType": "address",
          "name": "_admin",
          "type": "address"
        }
      ],
      "name": "addAdmin",
      "outputs": [],
      "stateMutability": "nonpayable",
      "type": "function"
    },
    {
      "inputs": [
        {
          "internalType": "string",
          "name": "name",
          "type": "string"
        }
      ],
      "name": "addCandidate",
      "outputs": [],
      "stateMutability": "nonpayable",
      "type": "function"
    },
    {
      "inputs": [
        {
          "internalType": "address",
          "name": "",
          "type": "address"
        }
      ],
      "name": "admins",
      "outputs": [
        {
          "internalType": "bool",
          "name": "",
          "type": "bool"
        }
      ],
      "stateMutability": "view",
      "type": "function"
    },
    {
      "inputs": [
        {
          "internalType": "uint256",
          "name": "",
          "type": "uint256"
        }
      ],
      "name": "candidates",
      "outputs": [
        {
          "internalType": "uint256",
          "name": "id",
          "type": "uint256"
        },
        {
          "internalType": "string",
          "name": "name",
          "type": "string"
        },
        {
          "internalType": "uint256",
          "name": "voteCount",
          "type": "uint256"
        }
      ],
      "stateMutability": "view",
      "type": "function"
    },
    {
      "inputs": [],
      "name": "candidatesCount",
      "outputs": [
        {
          "internalType": "uint256",
          "name": "",
          "type": "uint256"
        }
      ],
      "stateMutability": "view",
      "type": "function"
    },
    {
      "inputs": [],
      "name": "endVoting",
      "outputs": [],
      "stateMutability": "nonpayable",
      "type": "function"
    },
    {
      "inputs": [],
      "name": "getAllAdmins",
      "outputs": [
        {
          "internalType": "address[]",
          "name": "",
          "type": "address[]"
        }
      ],
      "stateMutability": "view",
      "type": "function"
    },
    {
      "inputs": [
        {
          "internalType": "uint256",
          "name": "candidateId",
          "type": "uint256"
        }
      ],
      "name": "getCandidate",
      "outputs": [
        {
          "internalType": "string",
          "name": "",
          "type": "string"
        },
        {
          "internalType": "uint256",
          "name": "",
          "type": "uint256"
        }
      ],
      "stateMutability": "view",
      "type": "function"
    },
    {
      "inputs": [],
      "name": "getCandidatesCount",
      "outputs": [
        {
          "internalType": "uint256",
          "name": "",
          "type": "uint256"
        }
      ],
      "stateMutability": "view",
      "type": "function"
    },
    {
      "inputs": [],
      "name": "getRemainingTime",
      "outputs": [
        {
          "internalType": "uint256",
          "name": "",
          "type": "uint256"
        }
      ],
      "stateMutability": "view",
      "type": "function"
    },
    {
      "inputs": [],
      "name": "getWinner",
      "outputs": [
        {
          "internalType": "string",
          "name": "winnerName",
          "type": "string"
        },
        {
          "internalType": "uint256",
          "name": "winnerVoteCount",
          "type": "uint256"
        }
      ],
      "stateMutability": "view",
      "type": "function"
    },
    {
      "inputs": [
        {
          "internalType": "address",
          "name": "_address",
          "type": "address"
        }
      ],
      "name": "isAdmin",
      "outputs": [
        {
          "internalType": "bool",
          "name": "",
          "type": "bool"
        }
      ],
      "stateMutability": "view",
      "type": "function"
    },
    {
      "inputs": [],
      "name": "owner",
      "outputs": [
        {
          "internalType": "address",
          "name": "",
          "type": "address"
        }
      ],
      "stateMutability": "view",
      "type": "function"
    },
    {
      "inputs": [
        {
          "internalType": "address",
          "name": "_voter",
          "type": "address"
        }
      ],
      "name": "registerVoter",
      "outputs": [],
      "stateMutability": "nonpayable",
      "type": "function"
    },
    {
      "inputs": [
        {
          "internalType": "address",
          "name": "_admin",
          "type": "address"
        }
      ],
      "name": "removeAdmin",
      "outputs": [],
      "stateMutability": "nonpayable",
      "type": "function"
    },
    {
      "inputs": [
        {
          "internalType": "uint256",
          "name": "candidateId",
          "type": "uint256"
        }
      ],
      "name": "removeCandidate",
      "outputs": [],
      "stateMutability": "nonpayable",
      "type": "function"
    },
    {
      "inputs": [
        {
          "internalType": "address",
          "name": "voterAddress",
          "type": "address"
        }
      ],
      "name": "resetVoter",
      "outputs": [],
      "stateMutability": "nonpayable",
      "type": "function"
    },
    {
      "inputs": [],
      "name": "resetVotingState",
      "outputs": [],
      "stateMutability": "nonpayable",
      "type": "function"
    },
    {
      "inputs": [
        {
          "internalType": "uint256",
          "name": "durationInMinutes",
          "type": "uint256"
        }
      ],
      "name": "setVotingDuration",
      "outputs": [],
      "stateMutability": "nonpayable",
      "type": "function"
    },
    {
      "inputs": [],
      "name": "startVoting",
      "outputs": [],
      "stateMutability": "nonpayable",
      "type": "function"
    },
    {
      "inputs": [
        {
          "internalType": "uint256",
          "name": "candidateId",
          "type": "uint256"
        }
      ],
      "name": "vote",
      "outputs": [],
      "stateMutability": "nonpayable",
      "type": "function"
    },
    {
      "inputs": [
        {
          "internalType": "address",
          "name": "",
          "type": "address"
        }
      ],
      "name": "voters",
      "outputs": [
        {
          "internalType": "bool",
          "name": "isRegistered",
          "type": "bool"
        },
        {
          "internalType": "bool",
          "name": "hasVoted",
          "type": "bool"
        },
        {
          "internalType": "uint256",
          "name": "votedFor",
          "type": "uint256"
        }
      ],
      "stateMutability": "view",
      "type": "function"
    },
    {
      "inputs": [],
      "name": "votingDuration",
      "outputs": [
        {
          "internalType": "uint256",
          "name": "",
          "type": "uint256"
        }
      ],
      "stateMutability": "view",
      "type": "function"
    },
    {
      "inputs": [],
      "name": "votingEndTime",
      "outputs": [
        {
          "internalType": "uint256",
          "name": "",
          "type": "uint256"
        }
      ],
      "stateMutability": "view",
      "type": "function"
    },
    {
      "inputs": [],
      "name": "votingEnded",
      "outputs": [
        {
          "internalType": "bool",
          "name": "",
          "type": "bool"
        }
      ],
      "stateMutability": "view",
      "type": "function"
    },
    {
      "inputs": [],
      "name": "votingStarted",
      "outputs": [
        {
          "internalType": "bool",
          "name": "",
          "type": "bool"
        }
      ],
      "stateMutability": "view",
      "type": "function"
    }
  ],
  "bytecode": "0x6080604052610e1060045534801561001657600080fd5b50336000806101000a81548173ffffffffffffffffffffffffffffffffffffffff021916908373ffffffffffffffffffffffffffffffffffffffff16021790555060018060003373ffffffffffffffffffffffffffffffffffffffff1673ffffffffffffffffffffffffffffffffffffffff16815260200190815260200160002060006101000a81548160ff0219169083151502179055507f44d6d25963f097ad14f29f06854a01f575648a1ef82f30e562ccd3889717e339336040516100dd919061012b565b60405180910390a1610146565b600073ffffffffffffffffffffffffffffffffffffffff82169050919050565b6000610115826100ea565b9050919050565b6101258161010a565b82525050565b6000602082019050610140600083018461011c565b92915050565b613e5d806101556000396000f3fe608060405234801561001057600080fd5b506004361061018e5760003560e01c80635bcfadb5116100de5780639d5a052911610097578063bb9aa28f11610071578063bb9aa28f1461044f578063c3403ddf1461046d578063e9523c9714610477578063efb98bcf146104955761018e565b80639d5a0529146103e3578063a3ec138d14610401578063ba05269b146104335761018e565b80635bcfadb514610346578063704802751461036257806383d948b71461037e5780638b5df08d1461039c5780638da5cb5b146103a65780638e7ea5b2146103c45761018e565b806324d7806c1161014b57806335b8e8201161012557806335b8e820146102ad57806338db6dd3146102de578063429b62e5146102fa578063462e91ec1461032a5761018e565b806324d7806c1461022d5780632d35a8a21461025d5780633477ee2e1461027b5761018e565b80630121b93f1461019357806309e9d7e2146101af578063132002fc146101cb5780631785f53c146101e95780631ea736e0146102055780631ec6b60a14610223575b600080fd5b6101ad60048036038101906101a891906129b6565b6104b3565b005b6101c960048036038101906101c491906129b6565b61085d565b005b6101d3610b6d565b6040516101e091906129f2565b60405180910390f35b61020360048036038101906101fe9190612a6b565b610b73565b005b61020d610f34565b60405161021a91906129f2565b60405180910390f35b61022b610f3a565b005b61024760048036038101906102429190612a6b565b611136565b6040516102549190612ab3565b60405180910390f35b6102656111e2565b60405161027291906129f2565b60405180910390f35b610295600480360381019061029091906129b6565b6111e8565b6040516102a493929190612b5e565b60405180910390f35b6102c760048036038101906102c291906129b6565b61129a565b6040516102d5929190612b9c565b60405180910390f35b6102f860048036038101906102f39190612a6b565b6113ca565b005b610314600480360381019061030f9190612a6b565b611624565b6040516103219190612ab3565b60405180910390f35b610344600480360381019061033f9190612c31565b611644565b005b610360600480360381019061035b91906129b6565b61186f565b005b61037c60048036038101906103779190612a6b565b611a33565b005b610386611c96565b6040516103939190612ab3565b60405180910390f35b6103a4611ca9565b005b6103ae611fc9565b6040516103bb9190612c8d565b60405180910390f35b6103cc611fed565b6040516103da929190612b9c565b60405180910390f35b6103eb61215a565b6040516103f89190612ab3565b60405180910390f35b61041b60048036038101906104169190612a6b565b61216d565b60405161042a93929190612ca8565b60405180910390f35b61044d60048036038101906104489190612a6b565b6121b1565b005b6104576123ff565b60405161046491906129f2565b60405180910390f35b610475612409565b005b61047f6125e0565b60405161048c9190612d9d565b60405180910390f35b61049d6128c0565b6040516104aa91906129f2565b60405180910390f35b600960009054906101000a900460ff1680156104dc5750600960019054906101000a900460ff16155b61051b576040517f08c379a000000000000000000000000000000000000000000000000000000000815260040161051290612e0b565b60405180910390fd5b600554421061055f576040517f08c379a000000000000000000000000000000000000000000000000000000000815260040161055690612e77565b60405180910390fd5b600660003373ffffffffffffffffffffffffffffffffffffffff1673ffffffffffffffffffffffffffffffffffffffff16815260200190815260200160002060000160019054906101000a900460ff16156105ef576040517f08c379a00000000000000000000000000000000000000000000000000000000081526004016105e690612ee3565b60405180910390fd5b60008111801561060157506008548111155b610640576040517f08c379a000000000000000000000000000000000000000000000000000000000815260040161063790612f4f565b60405180910390fd5b6001600660003373ffffffffffffffffffffffffffffffffffffffff1673ffffffffffffffffffffffffffffffffffffffff16815260200190815260200160002060000160016101000a81548160ff02191690831515021790555080600660003373ffffffffffffffffffffffffffffffffffffffff1673ffffffffffffffffffffffffffffffffffffffff1681526020019081526020016000206001018190555060076000828152602001908152602001600020600201600081548092919061070990612f9e565b9190505550600660003373ffffffffffffffffffffffffffffffffffffffff1673ffffffffffffffffffffffffffffffffffffffff16815260200190815260200160002060000160009054906101000a900460ff16610821576003339080600181540180825580915050600190039060005260206000200160009091909190916101000a81548173ffffffffffffffffffffffffffffffffffffffff021916908373ffffffffffffffffffffffffffffffffffffffff1602179055506001600660003373ffffffffffffffffffffffffffffffffffffffff1673ffffffffffffffffffffffffffffffffffffffff16815260200190815260200160002060000160006101000a81548160ff0219169083151502179055505b7f4d99b957a2bc29a30ebd96a7be8e68fe50a3c701db28a91436490b7d53870ca43382604051610852929190612fe6565b60405180910390a150565b600160003373ffffffffffffffffffffffffffffffffffffffff1673ffffffffffffffffffffffffffffffffffffffff16815260200190815260200160002060009054906101000a900460ff1680610900575060008054906101000a900473ffffffffffffffffffffffffffffffffffffffff1673ffffffffffffffffffffffffffffffffffffffff163373ffffffffffffffffffffffffffffffffffffffff16145b61093f576040517f08c379a000000000000000000000000000000000000000000000000000000000815260040161093690613081565b60405180910390fd5b600960009054906101000a900460ff161561098f576040517f08c379a000000000000000000000000000000000000000000000000000000000815260040161098690613113565b60405180910390fd5b6000811180156109a157506008548111155b6109e0576040517f08c379a00000000000000000000000000000000000000000000000000000000081526004016109d79061317f565b60405180910390fd5b6008548103610a735760076000828152602001908152602001600020600080820160009055600182016000610a159190612919565b6002820160009055505060086000815480929190610a329061319f565b91905055507f294c5a9bc8a39e6e06502bc8da429980f6c7b0990d75b682c12cb8705e3ace8581604051610a6691906129f2565b60405180910390a1610b6a565b600760006008548152602001908152602001600020600760008381526020019081526020016000206000820154816000015560018201816001019081610ab99190613419565b5060028201548160020155905050806007600083815260200190815260200160002060000181905550600760006008548152602001908152602001600020600080820160009055600182016000610b109190612919565b6002820160009055505060086000815480929190610b2d9061319f565b91905055507f294c5a9bc8a39e6e06502bc8da429980f6c7b0990d75b682c12cb8705e3ace8581604051610b6191906129f2565b60405180910390a15b50565b60045481565b60008054906101000a900473ffffffffffffffffffffffffffffffffffffffff1673ffffffffffffffffffffffffffffffffffffffff163373ffffffffffffffffffffffffffffffffffffffff1614610c01576040517f08c379a0000000000000000000000000000000000000000000000000000000008152600401610bf890613573565b60405180910390fd5b60008054906101000a900473ffffffffffffffffffffffffffffffffffffffff1673ffffffffffffffffffffffffffffffffffffffff168173ffffffffffffffffffffffffffffffffffffffff1603610c8f576040517f08c379a0000000000000000000000000000000000000000000000000000000008152600401610c86906135df565b60405180910390fd5b600160008273ffffffffffffffffffffffffffffffffffffffff1673ffffffffffffffffffffffffffffffffffffffff16815260200190815260200160002060009054906101000a900460ff16610d1b576040517f08c379a0000000000000000000000000000000000000000000000000000000008152600401610d129061364b565b60405180910390fd5b6000600160008373ffffffffffffffffffffffffffffffffffffffff1673ffffffffffffffffffffffffffffffffffffffff16815260200190815260200160002060006101000a81548160ff02191690831515021790555060005b600280549050811015610ef9578173ffffffffffffffffffffffffffffffffffffffff1660028281548110610dae57610dad61366b565b5b9060005260206000200160009054906101000a900473ffffffffffffffffffffffffffffffffffffffff1673ffffffffffffffffffffffffffffffffffffffff1603610eec5760026001600280549050610e08919061369a565b81548110610e1957610e1861366b565b5b9060005260206000200160009054906101000a900473ffffffffffffffffffffffffffffffffffffffff1660028281548110610e5857610e5761366b565b5b9060005260206000200160006101000a81548173ffffffffffffffffffffffffffffffffffffffff021916908373ffffffffffffffffffffffffffffffffffffffff1602179055506002805480610eb257610eb16136ce565b5b6001900381819060005260206000200160006101000a81549073ffffffffffffffffffffffffffffffffffffffff02191690559055610ef9565b8080600101915050610d76565b507fa3b62bc36326052d97ea62d63c3d60308ed4c3ea8ac079dd8499f1e9c4f80c0f81604051610f299190612c8d565b60405180910390a150565b60055481565b600160003373ffffffffffffffffffffffffffffffffffffffff1673ffffffffffffffffffffffffffffffffffffffff16815260200190815260200160002060009054906101000a900460ff1680610fdd575060008054906101000a900473ffffffffffffffffffffffffffffffffffffffff1673ffffffffffffffffffffffffffffffffffffffff163373ffffffffffffffffffffffffffffffffffffffff16145b61101c576040517f08c379a000000000000000000000000000000000000000000000000000000000815260040161101390613081565b60405180910390fd5b600960009054906101000a900460ff161561106c576040517f08c379a000000000000000000000000000000000000000000000000000000000815260040161106390613749565b60405180910390fd5b6000600854116110b1576040517f08c379a00000000000000000000000000000000000000000000000000000000081526004016110a8906137b5565b60405180910390fd5b6001600960006101000a81548160ff0219169083151502179055506000600960016101000a81548160ff021916908315150217905550600454426110f591906137d5565b6005819055507fcf33babc496bb6dc2942b39cb7b75766bbbadf7da50d176ff8c513e99114023960055460405161112c91906129f2565b60405180910390a1565b6000600160008373ffffffffffffffffffffffffffffffffffffffff1673ffffffffffffffffffffffffffffffffffffffff16815260200190815260200160002060009054906101000a900460ff16806111db575060008054906101000a900473ffffffffffffffffffffffffffffffffffffffff1673ffffffffffffffffffffffffffffffffffffffff168273ffffffffffffffffffffffffffffffffffffffff16145b9050919050565b60085481565b6007602052806000526040600020600091509050806000015490806001018054611211906131f7565b80601f016020809104026020016040519081016040528092919081815260200182805461123d906131f7565b801561128a5780601f1061125f5761010080835404028352916020019161128a565b820191906000526020600020905b81548152906001019060200180831161126d57829003601f168201915b5050505050908060020154905083565b6060600080831180156112af57506008548311155b6112ee576040517f08c379a00000000000000000000000000000000000000000000000000000000081526004016112e59061317f565b60405180910390fd5b60006007600085815260200190815260200160002060405180606001604052908160008201548152602001600182018054611328906131f7565b80601f0160208091040260200160405190810160405280929190818152602001828054611354906131f7565b80156113a15780601f10611376576101008083540402835291602001916113a1565b820191906000526020600020905b81548152906001019060200180831161138457829003601f168201915b505050505081526020016002820154815250509050806020015181604001519250925050915091565b600160003373ffffffffffffffffffffffffffffffffffffffff1673ffffffffffffffffffffffffffffffffffffffff16815260200190815260200160002060009054906101000a900460ff168061146d575060008054906101000a900473ffffffffffffffffffffffffffffffffffffffff1673ffffffffffffffffffffffffffffffffffffffff163373ffffffffffffffffffffffffffffffffffffffff16145b6114ac576040517f08c379a00000000000000000000000000000000000000000000000000000000081526004016114a390613081565b60405180910390fd5b600660008273ffffffffffffffffffffffffffffffffffffffff1673ffffffffffffffffffffffffffffffffffffffff16815260200190815260200160002060000160009054906101000a900460ff161561153c576040517f08c379a000000000000000000000000000000000000000000000000000000000815260040161153390613855565b60405180910390fd5b60405180606001604052806001151581526020016000151581526020016000815250600660008373ffffffffffffffffffffffffffffffffffffffff1673ffffffffffffffffffffffffffffffffffffffff16815260200190815260200160002060008201518160000160006101000a81548160ff02191690831515021790555060208201518160000160016101000a81548160ff021916908315150217905550604082015181600101559050507fb6be2187d059cc2a55fe29e0e503b566e1e0f8c8780096e185429350acffd3dd816040516116199190612c8d565b60405180910390a150565b60016020528060005260406000206000915054906101000a900460ff1681565b600160003373ffffffffffffffffffffffffffffffffffffffff1673ffffffffffffffffffffffffffffffffffffffff16815260200190815260200160002060009054906101000a900460ff16806116e7575060008054906101000a900473ffffffffffffffffffffffffffffffffffffffff1673ffffffffffffffffffffffffffffffffffffffff163373ffffffffffffffffffffffffffffffffffffffff16145b611726576040517f08c379a000000000000000000000000000000000000000000000000000000000815260040161171d90613081565b60405180910390fd5b600960009054906101000a900460ff1615611776576040517f08c379a000000000000000000000000000000000000000000000000000000000815260040161176d906138e7565b60405180910390fd5b6008600081548092919061178990612f9e565b91905055506040518060600160405280600854815260200183838080601f016020809104026020016040519081016040528093929190818152602001838380828437600081840152601f19601f82011690508083019250505050505050815260200160008152506007600060085481526020019081526020016000206000820151816000015560208201518160010190816118249190613907565b50604082015181600201559050507ff29562dad1599aea0ebb142466120aab326d5efa8f839df82a9c064bf78e89388282604051611863929190613a15565b60405180910390a15050565b600160003373ffffffffffffffffffffffffffffffffffffffff1673ffffffffffffffffffffffffffffffffffffffff16815260200190815260200160002060009054906101000a900460ff1680611912575060008054906101000a900473ffffffffffffffffffffffffffffffffffffffff1673ffffffffffffffffffffffffffffffffffffffff163373ffffffffffffffffffffffffffffffffffffffff16145b611951576040517f08c379a000000000000000000000000000000000000000000000000000000000815260040161194890613081565b60405180910390fd5b600960009054906101000a900460ff16156119a1576040517f08c379a000000000000000000000000000000000000000000000000000000000815260040161199890613aab565b60405180910390fd5b600081116119e4576040517f08c379a00000000000000000000000000000000000000000000000000000000081526004016119db90613b17565b60405180910390fd5b603c816119f19190613b37565b6004819055507f7b618bdde7807a5fed51719c1d5af2441afd29bee82e35b7c4f2e95b0cac9bca600454604051611a2891906129f2565b60405180910390a150565b600160003373ffffffffffffffffffffffffffffffffffffffff1673ffffffffffffffffffffffffffffffffffffffff16815260200190815260200160002060009054906101000a900460ff1680611ad6575060008054906101000a900473ffffffffffffffffffffffffffffffffffffffff1673ffffffffffffffffffffffffffffffffffffffff163373ffffffffffffffffffffffffffffffffffffffff16145b611b15576040517f08c379a0000000000000000000000000000000000000000000000000000000008152600401611b0c90613081565b60405180910390fd5b600160008273ffffffffffffffffffffffffffffffffffffffff1673ffffffffffffffffffffffffffffffffffffffff16815260200190815260200160002060009054906101000a900460ff1615611ba2576040517f08c379a0000000000000000000000000000000000000000000000000000000008152600401611b9990613bc5565b60405180910390fd5b60018060008373ffffffffffffffffffffffffffffffffffffffff1673ffffffffffffffffffffffffffffffffffffffff16815260200190815260200160002060006101000a81548160ff0219169083151502179055506002819080600181540180825580915050600190039060005260206000200160009091909190916101000a81548173ffffffffffffffffffffffffffffffffffffffff021916908373ffffffffffffffffffffffffffffffffffffffff1602179055507f44d6d25963f097ad14f29f06854a01f575648a1ef82f30e562ccd3889717e33981604051611c8b9190612c8d565b60405180910390a150565b600960009054906101000a900460ff1681565b600160003373ffffffffffffffffffffffffffffffffffffffff1673ffffffffffffffffffffffffffffffffffffffff16815260200190815260200160002060009054906101000a900460ff1680611d4c575060008054906101000a900473ffffffffffffffffffffffffffffffffffffffff1673ffffffffffffffffffffffffffffffffffffffff163373ffffffffffffffffffffffffffffffffffffffff16145b611d8b576040517f08c379a0000000000000000000000000000000000000000000000000000000008152600401611d8290613081565b60405180910390fd5b6000600960006101000a81548160ff0219169083151502179055506000600960016101000a81548160ff02191690831515021790555060006005819055506000600190505b6008548111611e0857600060076000838152602001908152602001600020600201819055508080611e0090612f9e565b915050611dd0565b5060005b600380549050811015611f9a57600060038281548110611e2f57611e2e61366b565b5b9060005260206000200160009054906101000a900473ffffffffffffffffffffffffffffffffffffffff169050600660008273ffffffffffffffffffffffffffffffffffffffff1673ffffffffffffffffffffffffffffffffffffffff16815260200190815260200160002060000160019054906101000a900460ff1615611f8c576000600660008373ffffffffffffffffffffffffffffffffffffffff1673ffffffffffffffffffffffffffffffffffffffff16815260200190815260200160002060000160016101000a81548160ff0219169083151502179055506000600660008373ffffffffffffffffffffffffffffffffffffffff1673ffffffffffffffffffffffffffffffffffffffff168152602001908152602001600020600101819055507ff2db1fecc97a022760b3dc1a11e50d6332862fec18841df6ac09d6dcc1d3637681604051611f839190612c8d565b60405180910390a15b508080600101915050611e0c565b507f7a19ed057db79e3c2fa0b97a54b43bef4fce74b31bb6c01af514b9a18a7f70ab60405160405180910390a1565b60008054906101000a900473ffffffffffffffffffffffffffffffffffffffff1681565b60606000600960019054906101000a900460ff168061200e57506005544210155b61204d576040517f08c379a000000000000000000000000000000000000000000000000000000000815260040161204490613c31565b60405180910390fd5b600060606000600190505b600854811161214d57826007600083815260200190815260200160002060020154111561213a57600760008281526020019081526020016000206002015492506007600082815260200190815260200160002060010180546120b9906131f7565b80601f01602080910402602001604051908101604052809291908181526020018280546120e5906131f7565b80156121325780601f1061210757610100808354040283529160200191612132565b820191906000526020600020905b81548152906001019060200180831161211557829003601f168201915b505050505091505b808061214590612f9e565b915050612058565b5080829350935050509091565b600960019054906101000a900460ff1681565b60066020528060005260406000206000915090508060000160009054906101000a900460ff16908060000160019054906101000a900460ff16908060010154905083565b600160003373ffffffffffffffffffffffffffffffffffffffff1673ffffffffffffffffffffffffffffffffffffffff16815260200190815260200160002060009054906101000a900460ff1680612254575060008054906101000a900473ffffffffffffffffffffffffffffffffffffffff1673ffffffffffffffffffffffffffffffffffffffff163373ffffffffffffffffffffffffffffffffffffffff16145b612293576040517f08c379a000000000000000000000000000000000000000000000000000000000815260040161228a90613081565b60405180910390fd5b600660008273ffffffffffffffffffffffffffffffffffffffff1673ffffffffffffffffffffffffffffffffffffffff16815260200190815260200160002060000160019054906101000a900460ff16612322576040517f08c379a000000000000000000000000000000000000000000000000000000000815260040161231990613c9d565b60405180910390fd5b6000600660008373ffffffffffffffffffffffffffffffffffffffff1673ffffffffffffffffffffffffffffffffffffffff16815260200190815260200160002060000160016101000a81548160ff0219169083151502179055506000600660008373ffffffffffffffffffffffffffffffffffffffff1673ffffffffffffffffffffffffffffffffffffffff168152602001908152602001600020600101819055507ff2db1fecc97a022760b3dc1a11e50d6332862fec18841df6ac09d6dcc1d36376816040516123f49190612c8d565b60405180910390a150565b6000600854905090565b600960009054906101000a900460ff16612458576040517f08c379a000000000000000000000000000000000000000000000000000000000815260040161244f90613d09565b60405180910390fd5b600960019054906101000a900460ff16156124a8576040517f08c379a000000000000000000000000000000000000000000000000000000000815260040161249f90613d75565b60405180910390fd5b60008054906101000a900473ffffffffffffffffffffffffffffffffffffffff1673ffffffffffffffffffffffffffffffffffffffff163373ffffffffffffffffffffffffffffffffffffffff16148061254b5750600160003373ffffffffffffffffffffffffffffffffffffffff1673ffffffffffffffffffffffffffffffffffffffff16815260200190815260200160002060009054906101000a900460ff165b8061255857506005544210155b612597576040517f08c379a000000000000000000000000000000000000000000000000000000000815260040161258e90613e07565b60405180910390fd5b6001600960016101000a81548160ff0219169083151502179055507f7a19ed057db79e3c2fa0b97a54b43bef4fce74b31bb6c01af514b9a18a7f70ab60405160405180910390a1565b60606000805b60028054905081101561269f57600160006002838154811061260b5761260a61366b565b5b9060005260206000200160009054906101000a900473ffffffffffffffffffffffffffffffffffffffff1673ffffffffffffffffffffffffffffffffffffffff1673ffffffffffffffffffffffffffffffffffffffff16815260200190815260200160002060009054906101000a900460ff161561269257818061268e90612f9e565b9250505b80806001019150506125e6565b5060006001826126af91906137d5565b67ffffffffffffffff8111156126c8576126c761323e565b5b6040519080825280602002602001820160405280156126f65781602001602082028036833780820191505090505b50905060008054906101000a900473ffffffffffffffffffffffffffffffffffffffff168160008151811061272e5761272d61366b565b5b602002602001019073ffffffffffffffffffffffffffffffffffffffff16908173ffffffffffffffffffffffffffffffffffffffff168152505060006001905060005b6002805490508110156128b65760016000600283815481106127965761279561366b565b5b9060005260206000200160009054906101000a900473ffffffffffffffffffffffffffffffffffffffff1673ffffffffffffffffffffffffffffffffffffffff1673ffffffffffffffffffffffffffffffffffffffff16815260200190815260200160002060009054906101000a900460ff16156128a957600281815481106128225761282161366b565b5b9060005260206000200160009054906101000a900473ffffffffffffffffffffffffffffffffffffffff168383815181106128605761285f61366b565b5b602002602001019073ffffffffffffffffffffffffffffffffffffffff16908173ffffffffffffffffffffffffffffffffffffffff168152505081806128a590612f9e565b9250505b8080600101915050612771565b5081935050505090565b6000600960009054906101000a900460ff1615806128ea5750600960019054906101000a900460ff165b806128f757506005544210155b156129055760009050612916565b42600554612913919061369a565b90505b90565b508054612925906131f7565b6000825580601f106129375750612956565b601f0160209004906000526020600020908101906129559190612959565b5b50565b5b8082111561297257600081600090555060010161295a565b5090565b600080fd5b600080fd5b6000819050919050565b61299381612980565b811461299e57600080fd5b50565b6000813590506129b08161298a565b92915050565b6000602082840312156129cc576129cb612976565b5b60006129da848285016129a1565b91505092915050565b6129ec81612980565b82525050565b6000602082019050612a0760008301846129e3565b92915050565b600073ffffffffffffffffffffffffffffffffffffffff82169050919050565b6000612a3882612a0d565b9050919050565b612a4881612a2d565b8114612a5357600080fd5b50565b600081359050612a6581612a3f565b92915050565b600060208284031215612a8157612a80612976565b5b6000612a8f84828501612a56565b91505092915050565b60008115159050919050565b612aad81612a98565b82525050565b6000602082019050612ac86000830184612aa4565b92915050565b600081519050919050565b600082825260208201905092915050565b60005b83811015612b08578082015181840152602081019050612aed565b60008484015250505050565b6000601f19601f8301169050919050565b6000612b3082612ace565b612b3a8185612ad9565b9350612b4a818560208601612aea565b612b5381612b14565b840191505092915050565b6000606082019050612b7360008301866129e3565b8181036020830152612b858185612b25565b9050612b9460408301846129e3565b949350505050565b60006040820190508181036000830152612bb68185612b25565b9050612bc560208301846129e3565b9392505050565b600080fd5b600080fd5b600080fd5b60008083601f840112612bf157612bf0612bcc565b5b8235905067ffffffffffffffff811115612c0e57612c0d612bd1565b5b602083019150836001820283011115612c2a57612c29612bd6565b5b9250929050565b60008060208385031215612c4857612c47612976565b5b600083013567ffffffffffffffff811115612c6657612c6561297b565b5b612c7285828601612bdb565b92509250509250929050565b612c8781612a2d565b82525050565b6000602082019050612ca26000830184612c7e565b92915050565b6000606082019050612cbd6000830186612aa4565b612cca6020830185612aa4565b612cd760408301846129e3565b949350505050565b600081519050919050565b600082825260208201905092915050565b6000819050602082019050919050565b612d1481612a2d565b82525050565b6000612d268383612d0b565b60208301905092915050565b6000602082019050919050565b6000612d4a82612cdf565b612d548185612cea565b9350612d5f83612cfb565b8060005b83811015612d90578151612d778882612d1a565b9750612d8283612d32565b925050600181019050612d63565b5085935050505092915050565b60006020820190508181036000830152612db78184612d3f565b905092915050565b7f566f74696e67206973206e6f7420616374697665000000000000000000000000600082015250565b6000612df5601483612ad9565b9150612e0082612dbf565b602082019050919050565b60006020820190508181036000830152612e2481612de8565b9050919050565b7f566f74696e6720706572696f642068617320656e646564000000000000000000600082015250565b6000612e61601783612ad9565b9150612e6c82612e2b565b602082019050919050565b60006020820190508181036000830152612e9081612e54565b9050919050565b7f596f75206861766520616c726561647920766f74656400000000000000000000600082015250565b6000612ecd601683612ad9565b9150612ed882612e97565b602082019050919050565b60006020820190508181036000830152612efc81612ec0565b9050919050565b7f496e76616c69642063616e646964617465000000000000000000000000000000600082015250565b6000612f39601183612ad9565b9150612f4482612f03565b602082019050919050565b60006020820190508181036000830152612f6881612f2c565b9050919050565b7f4e487b7100000000000000000000000000000000000000000000000000000000600052601160045260246000fd5b6000612fa982612980565b91507fffffffffffffffffffffffffffffffffffffffffffffffffffffffffffffffff8203612fdb57612fda612f6f565b5b600182019050919050565b6000604082019050612ffb6000830185612c7e565b61300860208301846129e3565b9392505050565b7f4f6e6c792061646d696e2063616e2063616c6c20746869732066756e6374696f60008201527f6e00000000000000000000000000000000000000000000000000000000000000602082015250565b600061306b602183612ad9565b91506130768261300f565b604082019050919050565b6000602082019050818103600083015261309a8161305e565b9050919050565b7f43616e6e6f742072656d6f76652063616e64696461746520616674657220766f60008201527f74696e6720686173207374617274656400000000000000000000000000000000602082015250565b60006130fd603083612ad9565b9150613108826130a1565b604082019050919050565b6000602082019050818103600083015261312c816130f0565b9050919050565b7f496e76616c69642063616e646964617465204944000000000000000000000000600082015250565b6000613169601483612ad9565b915061317482613133565b602082019050919050565b600060208201905081810360008301526131988161315c565b9050919050565b60006131aa82612980565b9150600082036131bd576131bc612f6f565b5b600182039050919050565b7f4e487b7100000000000000000000000000000000000000000000000000000000600052602260045260246000fd5b6000600282049050600182168061320f57607f821691505b602082108103613222576132216131c8565b5b50919050565b600081549050613237816131f7565b9050919050565b7f4e487b7100000000000000000000000000000000000000000000000000000000600052604160045260246000fd5b60008190508160005260206000209050919050565b60006020601f8301049050919050565b600082821b905092915050565b6000600883026132cf7fffffffffffffffffffffffffffffffffffffffffffffffffffffffffffffffff82613292565b6132d98683613292565b95508019841693508086168417925050509392505050565b6000819050919050565b600061331661331161330c84612980565b6132f1565b612980565b9050919050565b6000819050919050565b613330836132fb565b61334461333c8261331d565b84845461329f565b825550505050565b600090565b61335961334c565b613364818484613327565b505050565b5b818110156133885761337d600082613351565b60018101905061336a565b5050565b601f8211156133cd5761339e8161326d565b6133a784613282565b810160208510156133b6578190505b6133ca6133c285613282565b830182613369565b50505b505050565b600082821c905092915050565b60006133f0600019846008026133d2565b1980831691505092915050565b600061340983836133df565b9150826002028217905092915050565b8181036134275750506134ff565b61343082613228565b67ffffffffffffffff8111156134495761344861323e565b5b61345382546131f7565b61345e82828561338c565b6000601f83116001811461348d576000841561347b578287015490505b61348585826133fd565b8655506134f8565b601f19841661349b8761326d565b96506134a68661326d565b60005b828110156134ce578489015482556001820191506001850194506020810190506134a9565b868310156134eb57848901546134e7601f8916826133df565b8355505b6001600288020188555050505b5050505050505b565b7f4f6e6c79206f776e65722063616e2063616c6c20746869732066756e6374696f60008201527f6e00000000000000000000000000000000000000000000000000000000000000602082015250565b600061355d602183612ad9565b915061356882613501565b604082019050919050565b6000602082019050818103600083015261358c81613550565b9050919050565b7f43616e6e6f742072656d6f7665206f776e65722066726f6d2061646d696e7300600082015250565b60006135c9601f83612ad9565b91506135d482613593565b602082019050919050565b600060208201905081810360008301526135f8816135bc565b9050919050565b7f41646472657373206973206e6f7420616e2061646d696e000000000000000000600082015250565b6000613635601783612ad9565b9150613640826135ff565b602082019050919050565b6000602082019050818103600083015261366481613628565b9050919050565b7f4e487b7100000000000000000000000000000000000000000000000000000000600052603260045260246000fd5b60006136a582612980565b91506136b083612980565b92508282039050818111156136c8576136c7612f6f565b5b92915050565b7f4e487b7100000000000000000000000000000000000000000000000000000000600052603160045260246000fd5b7f566f74696e672068617320616c72656164792073746172746564000000000000600082015250565b6000613733601a83612ad9565b915061373e826136fd565b602082019050919050565b6000602082019050818103600083015261376281613726565b9050919050565b7f4e6f2063616e6469646174657320726567697374657265640000000000000000600082015250565b600061379f601883612ad9565b91506137aa82613769565b602082019050919050565b600060208201905081810360008301526137ce81613792565b9050919050565b60006137e082612980565b91506137eb83612980565b925082820190508082111561380357613802612f6f565b5b92915050565b7f566f74657220697320616c726561647920726567697374657265640000000000600082015250565b600061383f601b83612ad9565b915061384a82613809565b602082019050919050565b6000602082019050818103600083015261386e81613832565b9050919050565b7f43616e6e6f74206164642063616e64696461746520616674657220766f74696e60008201527f6720686173207374617274656400000000000000000000000000000000000000602082015250565b60006138d1602d83612ad9565b91506138dc82613875565b604082019050919050565b60006020820190508181036000830152613900816138c4565b9050919050565b61391082612ace565b67ffffffffffffffff8111156139295761392861323e565b5b61393382546131f7565b61393e82828561338c565b600060209050601f831160018114613971576000841561395f578287015190505b61396985826133fd565b8655506139d1565b601f19841661397f8661326d565b60005b828110156139a757848901518255600182019150602085019450602081019050613982565b868310156139c457848901516139c0601f8916826133df565b8355505b6001600288020188555050505b505050505050565b82818337600083830152505050565b60006139f48385612ad9565b9350613a018385846139d9565b613a0a83612b14565b840190509392505050565b60006020820190508181036000830152613a308184866139e8565b90509392505050565b7f43616e6e6f74206368616e6765206475726174696f6e207768696c6520766f7460008201527f696e672069732061637469766500000000000000000000000000000000000000602082015250565b6000613a95602d83612ad9565b9150613aa082613a39565b604082019050919050565b60006020820190508181036000830152613ac481613a88565b9050919050565b7f4475726174696f6e206d7573742062652067726561746572207468616e203000600082015250565b6000613b01601f83612ad9565b9150613b0c82613acb565b602082019050919050565b60006020820190508181036000830152613b3081613af4565b9050919050565b6000613b4282612980565b9150613b4d83612980565b9250828202613b5b81612980565b91508282048414831517613b7257613b71612f6f565b5b5092915050565b7f4164647265737320697320616c726561647920616e2061646d696e0000000000600082015250565b6000613baf601b83612ad9565b9150613bba82613b79565b602082019050919050565b60006020820190508181036000830152613bde81613ba2565b9050919050565b7f566f74696e6720686173206e6f7420656e646564207965740000000000000000600082015250565b6000613c1b601883612ad9565b9150613c2682613be5565b602082019050919050565b60006020820190508181036000830152613c4a81613c0e565b9050919050565b7f566f74657220686173206e6f7420766f74656420796574000000000000000000600082015250565b6000613c87601783612ad9565b9150613c9282613c51565b602082019050919050565b60006020820190508181036000830152613cb681613c7a565b9050919050565b7f566f74696e6720686173206e6f74207374617274656420796574000000000000600082015250565b6000613cf3601a83612ad9565b9150613cfe82613cbd565b602082019050919050565b60006020820190508181036000830152613d2281613ce6565b9050919050565b7f566f74696e672068617320616c726561647920656e6465640000000000000000600082015250565b6000613d5f601883612ad9565b9150613d6a82613d29565b602082019050919050565b60006020820190508181036000830152613d8e81613d52565b9050919050565b7f4f6e6c792061646d696e2063616e20656e6420766f74696e67206265666f726560008201527f2074696d65206c696d6974000000000000000000000000000000000000000000602082015250565b6000613df1602b83612ad9565b9150613dfc82613d95565b604082019050919050565b60006020820190508181036000830152613e2081613de4565b905091905056fea2646970667358221220d32cebd4db4a5a584471fca47553db46fb96306c7357beb8b756b0fa10fdf08164736f6c634300081c0033",
  "linkReferences": {},
  "deployedLinkReferences": {}
}